{
  "_format": "hh-sol-artifact-1",
  "contractName": "NewController",
  "sourceName": "contracts/packages/opyn/new/NewController.sol",
  "abi": [
    {
      "anonymous": false,
      "inputs": [
        {
          "indexed": true,
          "internalType": "address",
          "name": "accountOwner",
          "type": "address"
        },
        {
          "indexed": true,
          "internalType": "address",
          "name": "operator",
          "type": "address"
        },
        {
          "indexed": false,
          "internalType": "bool",
          "name": "isSet",
          "type": "bool"
        }
      ],
      "name": "AccountOperatorUpdated",
      "type": "event"
    },
    {
      "anonymous": false,
      "inputs": [
        {
          "indexed": true,
          "internalType": "address",
          "name": "from",
          "type": "address"
        },
        {
          "indexed": true,
          "internalType": "address",
          "name": "to",
          "type": "address"
        },
        {
          "indexed": false,
          "internalType": "bytes",
          "name": "data",
          "type": "bytes"
        }
      ],
      "name": "CallExecuted",
      "type": "event"
    },
    {
      "anonymous": false,
      "inputs": [
        {
          "indexed": false,
          "internalType": "bool",
          "name": "isRestricted",
          "type": "bool"
        }
      ],
      "name": "CallRestricted",
      "type": "event"
    },
    {
      "anonymous": false,
      "inputs": [
        {
          "indexed": true,
          "internalType": "address",
          "name": "asset",
          "type": "address"
        },
        {
          "indexed": true,
          "internalType": "address",
          "name": "accountOwner",
          "type": "address"
        },
        {
          "indexed": true,
          "internalType": "address",
          "name": "from",
          "type": "address"
        },
        {
          "indexed": false,
          "internalType": "uint256",
          "name": "vaultId",
          "type": "uint256"
        },
        {
          "indexed": false,
          "internalType": "uint256",
          "name": "amount",
          "type": "uint256"
        }
      ],
      "name": "CollateralAssetDeposited",
      "type": "event"
    },
    {
      "anonymous": false,
      "inputs": [
        {
          "indexed": true,
          "internalType": "address",
          "name": "asset",
          "type": "address"
        },
        {
          "indexed": true,
          "internalType": "address",
          "name": "AccountOwner",
          "type": "address"
        },
        {
          "indexed": true,
          "internalType": "address",
          "name": "to",
          "type": "address"
        },
        {
          "indexed": false,
          "internalType": "uint256",
          "name": "vaultId",
          "type": "uint256"
        },
        {
          "indexed": false,
          "internalType": "uint256",
          "name": "amount",
          "type": "uint256"
        }
      ],
      "name": "CollateralAssetWithdrawed",
      "type": "event"
    },
    {
      "anonymous": false,
      "inputs": [
        {
          "indexed": true,
          "internalType": "address",
          "name": "donator",
          "type": "address"
        },
        {
          "indexed": true,
          "internalType": "address",
          "name": "asset",
          "type": "address"
        },
        {
          "indexed": false,
          "internalType": "uint256",
          "name": "amount",
          "type": "uint256"
        }
      ],
      "name": "Donated",
      "type": "event"
    },
    {
      "anonymous": false,
      "inputs": [
        {
          "indexed": true,
          "internalType": "address",
          "name": "oldFullPauser",
          "type": "address"
        },
        {
          "indexed": true,
          "internalType": "address",
          "name": "newFullPauser",
          "type": "address"
        }
      ],
      "name": "FullPauserUpdated",
      "type": "event"
    },
    {
      "anonymous": false,
      "inputs": [
        {
          "indexed": true,
          "internalType": "address",
          "name": "otoken",
          "type": "address"
        },
        {
          "indexed": true,
          "internalType": "address",
          "name": "accountOwner",
          "type": "address"
        },
        {
          "indexed": true,
          "internalType": "address",
          "name": "from",
          "type": "address"
        },
        {
          "indexed": false,
          "internalType": "uint256",
          "name": "vaultId",
          "type": "uint256"
        },
        {
          "indexed": false,
          "internalType": "uint256",
          "name": "amount",
          "type": "uint256"
        }
      ],
      "name": "LongOtokenDeposited",
      "type": "event"
    },
    {
      "anonymous": false,
      "inputs": [
        {
          "indexed": true,
          "internalType": "address",
          "name": "otoken",
          "type": "address"
        },
        {
          "indexed": true,
          "internalType": "address",
          "name": "AccountOwner",
          "type": "address"
        },
        {
          "indexed": true,
          "internalType": "address",
          "name": "to",
          "type": "address"
        },
        {
          "indexed": false,
          "internalType": "uint256",
          "name": "vaultId",
          "type": "uint256"
        },
        {
          "indexed": false,
          "internalType": "uint256",
          "name": "amount",
          "type": "uint256"
        }
      ],
      "name": "LongOtokenWithdrawed",
      "type": "event"
    },
    {
      "anonymous": false,
      "inputs": [
        {
          "indexed": true,
          "internalType": "address",
          "name": "collateral",
          "type": "address"
        },
        {
          "indexed": false,
          "internalType": "uint256",
          "name": "cap",
          "type": "uint256"
        }
      ],
      "name": "NakedCapUpdated",
      "type": "event"
    },
    {
      "anonymous": false,
      "inputs": [
        {
          "indexed": true,
          "internalType": "address",
          "name": "previousOwner",
          "type": "address"
        },
        {
          "indexed": true,
          "internalType": "address",
          "name": "newOwner",
          "type": "address"
        }
      ],
      "name": "OwnershipTransferred",
      "type": "event"
    },
    {
      "anonymous": false,
      "inputs": [
        {
          "indexed": true,
          "internalType": "address",
          "name": "oldPartialPauser",
          "type": "address"
        },
        {
          "indexed": true,
          "internalType": "address",
          "name": "newPartialPauser",
          "type": "address"
        }
      ],
      "name": "PartialPauserUpdated",
      "type": "event"
    },
    {
      "anonymous": false,
      "inputs": [
        {
          "indexed": true,
          "internalType": "address",
          "name": "otoken",
          "type": "address"
        },
        {
          "indexed": true,
          "internalType": "address",
          "name": "redeemer",
          "type": "address"
        },
        {
          "indexed": true,
          "internalType": "address",
          "name": "receiver",
          "type": "address"
        },
        {
          "indexed": false,
          "internalType": "address",
          "name": "collateralAsset",
          "type": "address"
        },
        {
          "indexed": false,
          "internalType": "uint256",
          "name": "otokenBurned",
          "type": "uint256"
        },
        {
          "indexed": false,
          "internalType": "uint256",
          "name": "payout",
          "type": "uint256"
        }
      ],
      "name": "Redeem",
      "type": "event"
    },
    {
      "anonymous": false,
      "inputs": [
        {
          "indexed": true,
          "internalType": "address",
          "name": "otoken",
          "type": "address"
        },
        {
          "indexed": true,
          "internalType": "address",
          "name": "AccountOwner",
          "type": "address"
        },
        {
          "indexed": true,
          "internalType": "address",
          "name": "from",
          "type": "address"
        },
        {
          "indexed": false,
          "internalType": "uint256",
          "name": "vaultId",
          "type": "uint256"
        },
        {
          "indexed": false,
          "internalType": "uint256",
          "name": "amount",
          "type": "uint256"
        }
      ],
      "name": "ShortOtokenBurned",
      "type": "event"
    },
    {
      "anonymous": false,
      "inputs": [
        {
          "indexed": true,
          "internalType": "address",
          "name": "otoken",
          "type": "address"
        },
        {
          "indexed": true,
          "internalType": "address",
          "name": "AccountOwner",
          "type": "address"
        },
        {
          "indexed": true,
          "internalType": "address",
          "name": "to",
          "type": "address"
        },
        {
          "indexed": false,
          "internalType": "uint256",
          "name": "vaultId",
          "type": "uint256"
        },
        {
          "indexed": false,
          "internalType": "uint256",
          "name": "amount",
          "type": "uint256"
        }
      ],
      "name": "ShortOtokenMinted",
      "type": "event"
    },
    {
      "anonymous": false,
      "inputs": [
        {
          "indexed": false,
          "internalType": "bool",
          "name": "isPaused",
          "type": "bool"
        }
      ],
      "name": "SystemFullyPaused",
      "type": "event"
    },
    {
      "anonymous": false,
      "inputs": [
        {
          "indexed": false,
          "internalType": "bool",
          "name": "isPaused",
          "type": "bool"
        }
      ],
      "name": "SystemPartiallyPaused",
      "type": "event"
    },
    {
      "anonymous": false,
      "inputs": [
        {
          "indexed": true,
          "internalType": "address",
          "name": "liquidator",
          "type": "address"
        },
        {
          "indexed": false,
          "internalType": "address",
          "name": "receiver",
          "type": "address"
        },
        {
          "indexed": true,
          "internalType": "address",
          "name": "vaultOwner",
          "type": "address"
        },
        {
          "indexed": false,
          "internalType": "uint256",
          "name": "auctionPrice",
          "type": "uint256"
        },
        {
          "indexed": false,
          "internalType": "uint256",
          "name": "collateralPayout",
          "type": "uint256"
        },
        {
          "indexed": false,
          "internalType": "uint256",
          "name": "debtAmount",
          "type": "uint256"
        },
        {
          "indexed": false,
          "internalType": "uint256",
          "name": "vaultId",
          "type": "uint256"
        },
        {
          "indexed": true,
          "internalType": "address",
          "name": "series",
          "type": "address"
        }
      ],
      "name": "VaultLiquidated",
      "type": "event"
    },
    {
      "anonymous": false,
      "inputs": [
        {
          "indexed": true,
          "internalType": "address",
          "name": "accountOwner",
          "type": "address"
        },
        {
          "indexed": false,
          "internalType": "uint256",
          "name": "vaultId",
          "type": "uint256"
        },
        {
          "indexed": true,
          "internalType": "uint256",
          "name": "vaultType",
          "type": "uint256"
        }
      ],
      "name": "VaultOpened",
      "type": "event"
    },
    {
      "anonymous": false,
      "inputs": [
        {
          "indexed": true,
          "internalType": "address",
          "name": "accountOwner",
          "type": "address"
        },
        {
          "indexed": true,
          "internalType": "address",
          "name": "oTokenAddress",
          "type": "address"
        },
        {
          "indexed": false,
          "internalType": "address",
          "name": "to",
          "type": "address"
        },
        {
          "indexed": false,
          "internalType": "uint256",
          "name": "payout",
          "type": "uint256"
        },
        {
          "indexed": false,
          "internalType": "uint256",
          "name": "vaultId",
          "type": "uint256"
        },
        {
          "indexed": true,
          "internalType": "uint256",
          "name": "vaultType",
          "type": "uint256"
        }
      ],
      "name": "VaultSettled",
      "type": "event"
    },
    {
      "inputs": [],
      "name": "addressbook",
      "outputs": [
        {
          "internalType": "contract AddressBookInterface",
          "name": "",
          "type": "address"
        }
      ],
      "stateMutability": "view",
      "type": "function"
    },
    {
      "inputs": [],
      "name": "calculator",
      "outputs": [
        {
          "internalType": "contract MarginCalculatorInterface",
          "name": "",
          "type": "address"
        }
      ],
      "stateMutability": "view",
      "type": "function"
    },
    {
      "inputs": [],
      "name": "callRestricted",
      "outputs": [
        {
          "internalType": "bool",
          "name": "",
          "type": "bool"
        }
      ],
      "stateMutability": "view",
      "type": "function"
    },
    {
      "inputs": [
        {
          "internalType": "address",
          "name": "_underlying",
          "type": "address"
        },
        {
          "internalType": "address",
          "name": "_strike",
          "type": "address"
        },
        {
          "internalType": "address",
          "name": "_collateral",
          "type": "address"
        },
        {
          "internalType": "uint256",
          "name": "_expiry",
          "type": "uint256"
        }
      ],
      "name": "canSettleAssets",
      "outputs": [
        {
          "internalType": "bool",
          "name": "",
          "type": "bool"
        }
      ],
      "stateMutability": "view",
      "type": "function"
    },
    {
      "inputs": [
        {
          "internalType": "uint256",
          "name": "_vaultId",
          "type": "uint256"
        }
      ],
      "name": "clearVaultLiquidationDetails",
      "outputs": [],
      "stateMutability": "nonpayable",
      "type": "function"
    },
    {
      "inputs": [
        {
          "internalType": "address",
          "name": "_asset",
          "type": "address"
        },
        {
          "internalType": "uint256",
          "name": "_amount",
          "type": "uint256"
        }
      ],
      "name": "donate",
      "outputs": [],
      "stateMutability": "nonpayable",
      "type": "function"
    },
    {
      "inputs": [],
      "name": "fullPauser",
      "outputs": [
        {
          "internalType": "address",
          "name": "",
          "type": "address"
        }
      ],
      "stateMutability": "view",
      "type": "function"
    },
    {
      "inputs": [
        {
          "internalType": "address",
          "name": "_accountOwner",
          "type": "address"
        }
      ],
      "name": "getAccountVaultCounter",
      "outputs": [
        {
          "internalType": "uint256",
          "name": "",
          "type": "uint256"
        }
      ],
      "stateMutability": "view",
      "type": "function"
    },
    {
      "inputs": [],
      "name": "getConfiguration",
      "outputs": [
        {
          "internalType": "address",
          "name": "",
          "type": "address"
        },
        {
          "internalType": "address",
          "name": "",
          "type": "address"
        },
        {
          "internalType": "address",
          "name": "",
          "type": "address"
        },
        {
          "internalType": "address",
          "name": "",
          "type": "address"
        }
      ],
      "stateMutability": "view",
      "type": "function"
    },
    {
      "inputs": [
        {
          "internalType": "address",
          "name": "_asset",
          "type": "address"
        }
      ],
      "name": "getNakedCap",
      "outputs": [
        {
          "internalType": "uint256",
          "name": "",
          "type": "uint256"
        }
      ],
      "stateMutability": "view",
      "type": "function"
    },
    {
      "inputs": [
        {
          "internalType": "address",
          "name": "_asset",
          "type": "address"
        }
      ],
      "name": "getNakedPoolBalance",
      "outputs": [
        {
          "internalType": "uint256",
          "name": "",
          "type": "uint256"
        }
      ],
      "stateMutability": "view",
      "type": "function"
    },
    {
      "inputs": [
        {
          "internalType": "address",
          "name": "_otoken",
          "type": "address"
        },
        {
          "internalType": "uint256",
          "name": "_amount",
          "type": "uint256"
        }
      ],
      "name": "getPayout",
      "outputs": [
        {
          "internalType": "uint256",
          "name": "",
          "type": "uint256"
        }
      ],
      "stateMutability": "view",
      "type": "function"
    },
    {
      "inputs": [
        {
          "internalType": "address",
          "name": "_owner",
          "type": "address"
        },
        {
          "internalType": "uint256",
          "name": "_vaultId",
          "type": "uint256"
        }
      ],
      "name": "getProceed",
      "outputs": [
        {
          "internalType": "uint256",
          "name": "",
          "type": "uint256"
        }
      ],
      "stateMutability": "view",
      "type": "function"
    },
    {
      "inputs": [
        {
          "internalType": "address",
          "name": "_owner",
          "type": "address"
        },
        {
          "internalType": "uint256",
          "name": "_vaultId",
          "type": "uint256"
        }
      ],
      "name": "getVault",
      "outputs": [
        {
          "components": [
            {
              "internalType": "address[]",
              "name": "shortOtokens",
              "type": "address[]"
            },
            {
              "internalType": "address[]",
              "name": "longOtokens",
              "type": "address[]"
            },
            {
              "internalType": "address[]",
              "name": "collateralAssets",
              "type": "address[]"
            },
            {
              "internalType": "uint256[]",
              "name": "shortAmounts",
              "type": "uint256[]"
            },
            {
              "internalType": "uint256[]",
              "name": "longAmounts",
              "type": "uint256[]"
            },
            {
              "internalType": "uint256[]",
              "name": "collateralAmounts",
              "type": "uint256[]"
            }
          ],
          "internalType": "struct MarginVault.Vault",
          "name": "",
          "type": "tuple"
        }
      ],
      "stateMutability": "view",
      "type": "function"
    },
    {
      "inputs": [
        {
          "internalType": "address",
          "name": "_owner",
          "type": "address"
        },
        {
          "internalType": "uint256",
          "name": "_vaultId",
          "type": "uint256"
        }
      ],
      "name": "getVaultLiquidationDetails",
      "outputs": [
        {
          "internalType": "address",
          "name": "",
          "type": "address"
        },
        {
          "internalType": "uint256",
          "name": "",
          "type": "uint256"
        },
        {
          "internalType": "uint256",
          "name": "",
          "type": "uint256"
        }
      ],
      "stateMutability": "view",
      "type": "function"
    },
    {
      "inputs": [
        {
          "internalType": "address",
          "name": "_owner",
          "type": "address"
        },
        {
          "internalType": "uint256",
          "name": "_vaultId",
          "type": "uint256"
        }
      ],
      "name": "getVaultWithDetails",
      "outputs": [
        {
          "components": [
            {
              "internalType": "address[]",
              "name": "shortOtokens",
              "type": "address[]"
            },
            {
              "internalType": "address[]",
              "name": "longOtokens",
              "type": "address[]"
            },
            {
              "internalType": "address[]",
              "name": "collateralAssets",
              "type": "address[]"
            },
            {
              "internalType": "uint256[]",
              "name": "shortAmounts",
              "type": "uint256[]"
            },
            {
              "internalType": "uint256[]",
              "name": "longAmounts",
              "type": "uint256[]"
            },
            {
              "internalType": "uint256[]",
              "name": "collateralAmounts",
              "type": "uint256[]"
            }
          ],
          "internalType": "struct MarginVault.Vault",
          "name": "",
          "type": "tuple"
        },
        {
          "internalType": "uint256",
          "name": "",
          "type": "uint256"
        },
        {
          "internalType": "uint256",
          "name": "",
          "type": "uint256"
        }
      ],
      "stateMutability": "view",
      "type": "function"
    },
    {
      "inputs": [
        {
          "internalType": "address",
          "name": "_otoken",
          "type": "address"
        }
      ],
      "name": "hasExpired",
      "outputs": [
        {
          "internalType": "bool",
          "name": "",
          "type": "bool"
        }
      ],
      "stateMutability": "view",
      "type": "function"
    },
    {
      "inputs": [
        {
          "internalType": "address",
          "name": "_addressBook",
          "type": "address"
        },
        {
          "internalType": "address",
          "name": "_owner",
          "type": "address"
        }
      ],
      "name": "initialize",
      "outputs": [],
      "stateMutability": "nonpayable",
      "type": "function"
    },
    {
      "inputs": [
        {
          "internalType": "address",
          "name": "_owner",
          "type": "address"
        },
        {
          "internalType": "uint256",
          "name": "_vaultId",
          "type": "uint256"
        }
      ],
      "name": "isLiquidatable",
      "outputs": [
        {
          "internalType": "bool",
          "name": "",
          "type": "bool"
        },
        {
          "internalType": "uint256",
          "name": "",
          "type": "uint256"
        },
        {
          "internalType": "uint256",
          "name": "",
          "type": "uint256"
        }
      ],
      "stateMutability": "view",
      "type": "function"
    },
    {
      "inputs": [
        {
          "internalType": "address",
          "name": "_owner",
          "type": "address"
        },
        {
          "internalType": "address",
          "name": "_operator",
          "type": "address"
        }
      ],
      "name": "isOperator",
      "outputs": [
        {
          "internalType": "bool",
          "name": "",
          "type": "bool"
        }
      ],
      "stateMutability": "view",
      "type": "function"
    },
    {
      "inputs": [
        {
          "internalType": "address",
          "name": "_otoken",
          "type": "address"
        }
      ],
      "name": "isSettlementAllowed",
      "outputs": [
        {
          "internalType": "bool",
          "name": "",
          "type": "bool"
        }
      ],
      "stateMutability": "view",
      "type": "function"
    },
    {
      "inputs": [
        {
          "components": [
            {
              "internalType": "enum Actions.ActionType",
              "name": "actionType",
              "type": "uint8"
            },
            {
              "internalType": "address",
              "name": "owner",
              "type": "address"
            },
            {
              "internalType": "address",
              "name": "secondAddress",
              "type": "address"
            },
            {
              "internalType": "address",
              "name": "asset",
              "type": "address"
            },
            {
              "internalType": "uint256",
              "name": "vaultId",
              "type": "uint256"
            },
            {
              "internalType": "uint256",
              "name": "amount",
              "type": "uint256"
            },
            {
              "internalType": "uint256",
              "name": "index",
              "type": "uint256"
            },
            {
              "internalType": "bytes",
              "name": "data",
              "type": "bytes"
            }
          ],
          "internalType": "struct Actions.ActionArgs[]",
          "name": "_actions",
          "type": "tuple[]"
        }
      ],
      "name": "operate",
      "outputs": [],
      "stateMutability": "nonpayable",
      "type": "function"
    },
    {
      "inputs": [],
      "name": "oracle",
      "outputs": [
        {
          "internalType": "contract OracleInterface",
          "name": "",
          "type": "address"
        }
      ],
      "stateMutability": "view",
      "type": "function"
    },
    {
      "inputs": [],
      "name": "owner",
      "outputs": [
        {
          "internalType": "address",
          "name": "",
          "type": "address"
        }
      ],
      "stateMutability": "view",
      "type": "function"
    },
    {
      "inputs": [],
      "name": "partialPauser",
      "outputs": [
        {
          "internalType": "address",
          "name": "",
          "type": "address"
        }
      ],
      "stateMutability": "view",
      "type": "function"
    },
    {
      "inputs": [],
      "name": "pool",
      "outputs": [
        {
          "internalType": "contract MarginPoolInterface",
          "name": "",
          "type": "address"
        }
      ],
      "stateMutability": "view",
      "type": "function"
    },
    {
      "inputs": [],
      "name": "refreshConfiguration",
      "outputs": [],
      "stateMutability": "nonpayable",
      "type": "function"
    },
    {
      "inputs": [],
      "name": "renounceOwnership",
      "outputs": [],
      "stateMutability": "nonpayable",
      "type": "function"
    },
    {
      "inputs": [
        {
          "internalType": "bool",
          "name": "_isRestricted",
          "type": "bool"
        }
      ],
      "name": "setCallRestriction",
      "outputs": [],
      "stateMutability": "nonpayable",
      "type": "function"
    },
    {
      "inputs": [
        {
          "internalType": "address",
          "name": "_fullPauser",
          "type": "address"
        }
      ],
      "name": "setFullPauser",
      "outputs": [],
      "stateMutability": "nonpayable",
      "type": "function"
    },
    {
      "inputs": [
        {
          "internalType": "address",
          "name": "_collateral",
          "type": "address"
        },
        {
          "internalType": "uint256",
          "name": "_cap",
          "type": "uint256"
        }
      ],
      "name": "setNakedCap",
      "outputs": [],
      "stateMutability": "nonpayable",
      "type": "function"
    },
    {
      "inputs": [
        {
          "internalType": "address",
          "name": "_operator",
          "type": "address"
        },
        {
          "internalType": "bool",
          "name": "_isOperator",
          "type": "bool"
        }
      ],
      "name": "setOperator",
      "outputs": [],
      "stateMutability": "nonpayable",
      "type": "function"
    },
    {
      "inputs": [
        {
          "internalType": "address",
          "name": "_partialPauser",
          "type": "address"
        }
      ],
      "name": "setPartialPauser",
      "outputs": [],
      "stateMutability": "nonpayable",
      "type": "function"
    },
    {
      "inputs": [
        {
          "internalType": "bool",
          "name": "_fullyPaused",
          "type": "bool"
        }
      ],
      "name": "setSystemFullyPaused",
      "outputs": [],
      "stateMutability": "nonpayable",
      "type": "function"
    },
    {
      "inputs": [
        {
          "internalType": "bool",
          "name": "_partiallyPaused",
          "type": "bool"
        }
      ],
      "name": "setSystemPartiallyPaused",
      "outputs": [],
      "stateMutability": "nonpayable",
      "type": "function"
    },
    {
      "inputs": [
        {
          "internalType": "address",
          "name": "_owner",
          "type": "address"
        },
        {
          "internalType": "uint256",
          "name": "_vaultId",
          "type": "uint256"
        }
      ],
      "name": "sync",
      "outputs": [],
      "stateMutability": "nonpayable",
      "type": "function"
    },
    {
      "inputs": [],
      "name": "systemFullyPaused",
      "outputs": [
        {
          "internalType": "bool",
          "name": "",
          "type": "bool"
        }
      ],
      "stateMutability": "view",
      "type": "function"
    },
    {
      "inputs": [],
      "name": "systemPartiallyPaused",
      "outputs": [
        {
          "internalType": "bool",
          "name": "",
          "type": "bool"
        }
      ],
      "stateMutability": "view",
      "type": "function"
    },
    {
      "inputs": [
        {
          "internalType": "address",
          "name": "newOwner",
          "type": "address"
        }
      ],
      "name": "transferOwnership",
      "outputs": [],
      "stateMutability": "nonpayable",
      "type": "function"
    },
    {
      "inputs": [],
      "name": "whitelist",
      "outputs": [
        {
          "internalType": "contract WhitelistInterface",
          "name": "",
          "type": "address"
        }
      ],
      "stateMutability": "view",
      "type": "function"
    }
  ],
  "bytecode": "0x608060405234801561001057600080fd5b50615f7880620000216000396000f3fe608060405234801561001057600080fd5b50600436106102485760003560e01c80639f677ed91161013b578063ce3e39c0116100b8578063eab7775b1161007c578063eab7775b146104c4578063ef4fcafa146104cc578063f2fde38b146104df578063f62fc0b3146104f2578063f77bc88b1461051457610248565b8063ce3e39c014610463578063d66dd43e1461046b578063d99d13f51461047e578063e69d849d1461049e578063e723406c146104b157610248565b8063c220101d116100ff578063c220101d1461040f578063c644d3a214610422578063caa6d21a14610435578063cab2e80514610448578063cdee058a1461045b57610248565b80639f677ed9146103b0578063b617f0c6146103c3578063b6363cf2146103d6578063bc463a3d146103e9578063beca75d7146103fc57610248565b80636bd50cef116101c95780637dc0d1d01161018d5780637dc0d1d01461036e5780638da5cb5b1461037657806393e59dc11461037e5780639daafbe8146103865780639db93891146103a857610248565b80636bd50cef1461032b5780636c0c3b991461034357806370dc320c1461034b578063715018a6146103535780637d8579f81461035b57610248565b8063485cc95511610210578063485cc955146102ca578063558a7297146102dd578063565eea19146102f0578063573c473e14610310578063646810831461032357610248565b806314b93faf1461024d57806316f0115b1461027657806329729d881461028b5780632eb1c3a7146102935780633fdfb2aa146102a8575b600080fd5b61026061025b36600461509b565b610527565b60405161026d91906155fb565b60405180910390f35b61027e61053e565b60405161026d9190615504565b61027e61054d565b6102a66102a136600461518b565b61055c565b005b6102bb6102b636600461518b565b610611565b60405161026d93929190615606565b6102a66102d8366004615063565b610636565b6102a66102eb36600461515e565b61074e565b6103036102fe36600461518b565b610807565b60405161026d9190615ee1565b6102a661031e3660046152ed565b6108b9565b6102a6610970565b6103336109af565b60405161026d9493929190615581565b6102606109d4565b61027e6109e4565b6102a66109f3565b6102a661036936600461535b565b610a72565b61027e610aa1565b61027e610ab0565b61027e610ac0565b61039961039436600461518b565b610acf565b60405161026d93929190615e98565b61027e610d68565b6102a66103be3660046152ed565b610d77565b6102a66103d13660046151b6565b610e23565b6102606103e4366004615063565b610eb5565b6102a66103f736600461502b565b610ee3565b6102a661040a36600461502b565b610fc8565b61030361041d36600461518b565b6110ad565b61030361043036600461502b565b61116e565b61030361044336600461502b565b611189565b6102a66104563660046152ed565b6111a4565b61026061125b565b61027e61126b565b61030361047936600461502b565b61127a565b61049161048c36600461518b565b611295565b60405161026d9190615e63565b6102a66104ac36600461518b565b6114f6565b6102606104bf36600461502b565b61159f565b6102606115ce565b6102a66104da36600461518b565b6115de565b6102a66104ed36600461502b565b611651565b61050561050036600461518b565b611708565b60405161026d939291906155ac565b61026061052236600461502b565b61177d565b6000610535858585856117f9565b95945050505050565b60cd546001600160a01b031681565b60cf546001600160a01b031681565b61056461198e565b6065546001600160a01b0390811691161461059a5760405162461bcd60e51b815260040161059190615ade565b60405180910390fd5b600081116105ba5760405162461bcd60e51b81526004016105919061599a565b6001600160a01b038216600081815260d5602052604090819020839055517f6ff730ba70e34bd5ca823424bd15ab869cadc6bad079b527c71bde444ad6402b90610605908490615ee1565b60405180910390a25050565b6000806000806000806106248888611992565b91985096509450505050509250925092565b600054610100900460ff168061064f575061064f611a5b565b8061065d575060005460ff16155b6106795760405162461bcd60e51b815260040161059190615b30565b600054610100900460ff161580156106a4576000805460ff1961ff0019909116610100171660011790555b6001600160a01b0383166106ca5760405162461bcd60e51b815260040161059190615a47565b6001600160a01b0382166106f05760405162461bcd60e51b815260040161059190615e0f565b6106f982611a61565b610701611af6565b60c980546001600160a01b0319166001600160a01b038516179055610724611b86565b60cf805460ff60b01b1916600160b01b1790558015610749576000805461ff00191690555b505050565b33600090815260d2602090815260408083206001600160a01b038616845290915290205460ff16151581151514156107985760405162461bcd60e51b815260040161059190615d2d565b33600081815260d2602090815260408083206001600160a01b038716808552925291829020805460ff191685151517905590519091907f1ae45540b0875932452da603b351ce2f1758258ba1345e79f8fc94f044cb0787906107fb9085906155fb565b60405180910390a35050565b60cc54604051630478409360e41b81526000916108b0916305f5e100916108a49186916001600160a01b031690634784093090610848908a90600401615504565b60206040518083038186803b15801561086057600080fd5b505afa158015610874573d6000803e3d6000fd5b505050506040513d601f19601f820116820180604052508101906108989190615373565b9063ffffffff611de116565b9063ffffffff611e1b16565b90505b92915050565b60ce546001600160a01b031633146108e35760405162461bcd60e51b81526004016105919061577a565b60cf5460ff600160a01b90910416151581151514156109145760405162461bcd60e51b815260040161059190615d2d565b60cf805460ff60a01b1916600160a01b831515810291909117918290556040517f531c3d7229f510a8da00a0f5792686958cdd9c8a120c3c030a6053cd66b68556926109659260ff910416906155fb565b60405180910390a150565b61097861198e565b6065546001600160a01b039081169116146109a55760405162461bcd60e51b815260040161059190615ade565b6109ad611b86565b565b60ca5460cb5460cc5460cd546001600160a01b03938416949284169391821692911690565b60cf54600160b01b900460ff1681565b60c9546001600160a01b031681565b6109fb61198e565b6065546001600160a01b03908116911614610a285760405162461bcd60e51b815260040161059190615ade565b6065546040516000916001600160a01b0316907f8be0079c531659141344cd1fd0a4f28419497f9722a3daafe3b4186f6b6457e0908390a3606580546001600160a01b0319169055565b33600090815260d76020908152604080832093835292905290812080546001600160a01b031916815560010155565b60cb546001600160a01b031681565b6065546001600160a01b03165b90565b60ca546001600160a01b031681565b610ad7614de1565b6001600160a01b038316600081815260d160209081526040808320868452825280832084845260d3835281842087855283528184205494845260d483528184208785528352818420548251825460e09581028201860190945260c081018481529596879693959094929391928692849290918491840182828015610b8457602002820191906000526020600020905b81546001600160a01b03168152600190910190602001808311610b66575b5050505050815260200160018201805480602002602001604051908101604052809291908181526020018280548015610be657602002820191906000526020600020905b81546001600160a01b03168152600190910190602001808311610bc8575b5050505050815260200160028201805480602002602001604051908101604052809291908181526020018280548015610c4857602002820191906000526020600020905b81546001600160a01b03168152600190910190602001808311610c2a575b5050505050815260200160038201805480602002602001604051908101604052809291908181526020018280548015610ca057602002820191906000526020600020905b815481526020019060010190808311610c8c575b5050505050815260200160048201805480602002602001604051908101604052809291908181526020018280548015610cf857602002820191906000526020600020905b815481526020019060010190808311610ce4575b5050505050815260200160058201805480602002602001604051908101604052809291908181526020018280548015610d5057602002820191906000526020600020905b815481526020019060010190808311610d3c575b50505050508152505092509250925092509250925092565b60ce546001600160a01b031681565b60cf546001600160a01b03163314610da15760405162461bcd60e51b8152600401610591906159b7565b60cf5460ff600160a81b9091041615158115151415610dd25760405162461bcd60e51b815260040161059190615d2d565b60cf805460ff60a81b1916600160a81b831515810291909117918290556040517f4f1d0445688d95c99ca9fc036f551b205fd18ff26a4443b1979c16d1ba66b535926109659260ff910416906155fb565b60975460ff16610e455760405162461bcd60e51b815260040161059190615dd8565b6097805460ff19169055610e57611e5d565b6000806000610e6584611e87565b9250925092508215610ea257610e7b828261213d565b6001600160a01b038216600090815260d46020908152604080832084845290915290204290555b50506097805460ff191660011790555050565b6001600160a01b03918216600090815260d26020908152604080832093909416825291909152205460ff1690565b610eeb61198e565b6065546001600160a01b03908116911614610f185760405162461bcd60e51b815260040161059190615ade565b6001600160a01b038116610f3e5760405162461bcd60e51b8152600401610591906158b4565b60ce546001600160a01b0382811691161415610f6c5760405162461bcd60e51b815260040161059190615d2d565b60ce546040516001600160a01b038084169216907f1440312dbc326ddc21bfa95078324bf5aaf6899e8a27cba3057c60adfc84e40b90600090a360ce80546001600160a01b0319166001600160a01b0392909216919091179055565b610fd061198e565b6065546001600160a01b03908116911614610ffd5760405162461bcd60e51b815260040161059190615ade565b6001600160a01b0381166110235760405162461bcd60e51b8152600401610591906157ea565b60cf546001600160a01b03828116911614156110515760405162461bcd60e51b815260040161059190615d2d565b60cf546040516001600160a01b038084169216907f44f3e9e7b454118e9fcb2e3026396f57ca21d7bd7dcabd31d7f986806422f4df90600090a360cf80546001600160a01b0319166001600160a01b0392909216919091179055565b60006110b7614de1565b60006110c38585610acf565b5060cc5460405163cd43fbfb60e01b815292945090925060009182916001600160a01b03169063cd43fbfb906110ff9087908790600401615e76565b604080518083038186803b15801561111657600080fd5b505afa15801561112a573d6000803e3d6000fd5b505050506040513d601f19601f8201168201806040525081019061114e919061538b565b91509150806111645760009450505050506108b3565b5095945050505050565b6001600160a01b0316600090815260d5602052604090205490565b6001600160a01b0316600090815260d0602052604090205490565b6111ac61198e565b6065546001600160a01b039081169116146111d95760405162461bcd60e51b815260040161059190615ade565b60cf5460ff600160b01b909104161515811515141561120a5760405162461bcd60e51b815260040161059190615d2d565b60cf805460ff60b01b1916600160b01b831515810291909117918290556040517f26d614575a4c104c181c87003d4bb00cc7ade00d5b47bf8775171c12a376b255926109659260ff910416906155fb565b60cf54600160a01b900460ff1681565b60cc546001600160a01b031681565b6001600160a01b0316600090815260d6602052604090205490565b61129d614de1565b6001600160a01b038316600090815260d1602090815260408083208584528252918290208251815460e09381028201840190945260c08101848152909391928492849184018282801561131957602002820191906000526020600020905b81546001600160a01b031681526001909101906020018083116112fb575b505050505081526020016001820180548060200260200160405190810160405280929190818152602001828054801561137b57602002820191906000526020600020905b81546001600160a01b0316815260019091019060200180831161135d575b50505050508152602001600282018054806020026020016040519081016040528092919081815260200182805480156113dd57602002820191906000526020600020905b81546001600160a01b031681526001909101906020018083116113bf575b505050505081526020016003820180548060200260200160405190810160405280929190818152602001828054801561143557602002820191906000526020600020905b815481526020019060010190808311611421575b505050505081526020016004820180548060200260200160405190810160405280929190818152602001828054801561148d57602002820191906000526020600020905b815481526020019060010190808311611479575b50505050508152602001600582018054806020026020016040519081016040528092919081815260200182805480156114e557602002820191906000526020600020905b8154815260200190600101908083116114d1575b505050505081525050905092915050565b60cd5460405163dd2c99f760e01b81526001600160a01b039091169063dd2c99f79061152a9085903390869060040161555d565b600060405180830381600087803b15801561154457600080fd5b505af1158015611558573d6000803e3d6000fd5b50505050816001600160a01b0316336001600160a01b03167f4dfff917e1fbb261a082e98cc7d43029621f6a6eb05ff3fef1510d5f1eb4857c836040516107fb9190615ee1565b60008060008060006115b086612203565b93509350935093506115c4848484846117f9565b9695505050505050565b60cf54600160a81b900460ff1681565b60975460ff166116005760405162461bcd60e51b815260040161059190615dd8565b6097805460ff19169055611612611e5d565b61161c828261213d565b6001600160a01b03909116600090815260d460209081526040808320938352929052204290556097805460ff19166001179055565b61165961198e565b6065546001600160a01b039081169116146116865760405162461bcd60e51b815260040161059190615ade565b6001600160a01b0381166116ac5760405162461bcd60e51b815260040161059190615734565b6065546040516001600160a01b038084169216907f8be0079c531659141344cd1fd0a4f28419497f9722a3daafe3b4186f6b6457e090600090a3606580546001600160a01b0319166001600160a01b0392909216919091179055565b6000806000611715614e17565b505050506001600160a01b03918216600090815260d76020908152604080832093835292815290829020825160608101845281549094168085526001909101546001600160801b03808216938601849052600160801b90910416939092018390529092909190565b6000816001600160a01b031663ade6e2aa6040518163ffffffff1660e01b815260040160206040518083038186803b1580156117b857600080fd5b505afa1580156117cc573d6000803e3d6000fd5b505050506040513d601f19601f820116820180604052508101906117f09190615373565b42101592915050565b60cb54604051635fdc714960e01b81526000916001600160a01b031690635fdc71499061182c9088908690600401615544565b60206040518083038186803b15801561184457600080fd5b505afa158015611858573d6000803e3d6000fd5b505050506040513d601f19601f8201168201806040525081019061187c9190615309565b8015611905575060cb54604051635fdc714960e01b81526001600160a01b0390911690635fdc7149906118b59087908690600401615544565b60206040518083038186803b1580156118cd57600080fd5b505afa1580156118e1573d6000803e3d6000fd5b505050506040513d601f19601f820116820180604052508101906119059190615309565b8015610535575060cb54604051635fdc714960e01b81526001600160a01b0390911690635fdc71499061193e9086908690600401615544565b60206040518083038186803b15801561195657600080fd5b505afa15801561196a573d6000803e3d6000fd5b505050506040513d601f19601f820116820180604052508101906105359190615309565b3390565b61199a614de1565b60008060006119a7614de1565b6000806119b48989610acf565b60cc546040516337ad5d4f60e01b81529396509194509250600091829182916001600160a01b03909116906337ad5d4f906119f59089908990600401615e76565b60606040518083038186803b158015611a0d57600080fd5b505afa158015611a21573d6000803e3d6000fd5b505050506040513d601f19601f82011682018060405250810190611a459190615325565b979e919d509b5095995094975050505050505050565b303b1590565b600054610100900460ff1680611a7a5750611a7a611a5b565b80611a88575060005460ff16155b611aa45760405162461bcd60e51b815260040161059190615b30565b600054610100900460ff16158015611acf576000805460ff1961ff0019909116610100171660011790555b611ad7612468565b611ae0826124ea565b8015611af2576000805461ff00191690555b5050565b600054610100900460ff1680611b0f5750611b0f611a5b565b80611b1d575060005460ff16155b611b395760405162461bcd60e51b815260040161059190615b30565b600054610100900460ff16158015611b64576000805460ff1961ff0019909116610100171660011790555b6097805460ff191660011790558015611b83576000805461ff00191690555b50565b60c960009054906101000a90046001600160a01b03166001600160a01b031663d01f63f56040518163ffffffff1660e01b815260040160206040518083038186803b158015611bd457600080fd5b505afa158015611be8573d6000803e3d6000fd5b505050506040513d601f19601f82011682018060405250810190611c0c9190615047565b60ca80546001600160a01b0319166001600160a01b0392831617905560c9546040805163419d8fe760e11b81529051919092169163833b1fce916004808301926020929190829003018186803b158015611c6557600080fd5b505afa158015611c79573d6000803e3d6000fd5b505050506040513d601f19601f82011682018060405250810190611c9d9190615047565b60cb80546001600160a01b0319166001600160a01b0392831617905560c9546040805163cf28493f60e01b81529051919092169163cf28493f916004808301926020929190829003018186803b158015611cf657600080fd5b505afa158015611d0a573d6000803e3d6000fd5b505050506040513d601f19601f82011682018060405250810190611d2e9190615047565b60cc80546001600160a01b0319166001600160a01b0392831617905560c95460408051633aa431a160e11b8152905191909216916375486342916004808301926020929190829003018186803b158015611d8757600080fd5b505afa158015611d9b573d6000803e3d6000fd5b505050506040513d601f19601f82011682018060405250810190611dbf9190615047565b60cd80546001600160a01b0319166001600160a01b0392909216919091179055565b600082611df0575060006108b3565b82820282848281611dfd57fe5b04146108b05760405162461bcd60e51b815260040161059190615a80565b60006108b083836040518060400160405280601a81526020017f536166654d6174683a206469766973696f6e206279207a65726f0000000000008152506125b6565b60cf54600160a81b900460ff16156109ad5760405162461bcd60e51b815260040161059190615e47565b60008080808080805b875181101561213157611ea1614e37565b888281518110611ead57fe5b60209081029190910101518051909150600781600a811115611ecb57fe5b14158015611ee55750600881600a811115611ee257fe5b14155b8015611efd5750600a81600a811115611efa57fe5b14155b8015611f155750600981600a811115611f1257fe5b14155b15611f8b578315611f785781602001516001600160a01b0316866001600160a01b031614611f555760405162461bcd60e51b815260040161059190615a0d565b81608001518514611f785760405162461bcd60e51b815260040161059190615824565b6001935081608001519450816020015195505b600081600a811115611f9957fe5b1415611fb557611fb0611fab836125ed565b6126c5565b612127565b600381600a811115611fc357fe5b1415611fda57611fb0611fd5836127b4565b612890565b600481600a811115611fe857fe5b1415611fff57611fb0611ffa83612be1565b612c80565b600581600a81111561200d57fe5b141561202457611fb061201f836127b4565b612ed4565b600681600a81111561203257fe5b141561204957611fb061204483612be1565b613232565b600181600a81111561205757fe5b141561206e57611fb061206983613536565b613594565b600281600a81111561207c57fe5b141561209357611fb061208e8361387c565b6138da565b600881600a8111156120a157fe5b14156120b857611fb06120b383613b73565b613c05565b600781600a8111156120c657fe5b14156120dd57611fb06120d883613e54565b613f1c565b600a81600a8111156120eb57fe5b141561210257611fb06120fd83614379565b614493565b600981600a81111561211057fe5b14156121275761212761212283614a5f565b614ae4565b5050600101611e90565b50969195509350915050565b612145614de1565b60006121518484610acf565b5060cc5460405163cd43fbfb60e01b81529294509092506000916001600160a01b039091169063cd43fbfb9061218d9086908690600401615e76565b604080518083038186803b1580156121a457600080fd5b505afa1580156121b8573d6000803e3d6000fd5b505050506040513d601f19601f820116820180604052508101906121dc919061538b565b915050806121fc5760405162461bcd60e51b81526004016105919061564d565b5050505050565b6000806000806000859050806001600160a01b031663af0968fc6040518163ffffffff1660e01b815260040160c06040518083038186803b15801561224757600080fd5b505afa925050508015612277575060408051601f3d908101601f19168201909252612274918101906150eb565b60015b61244d57806001600160a01b031663aabaecd66040518163ffffffff1660e01b815260040160206040518083038186803b1580156122b457600080fd5b505afa1580156122c8573d6000803e3d6000fd5b505050506040513d601f19601f820116820180604052508101906122ec9190615047565b816001600160a01b0316637158da7c6040518163ffffffff1660e01b815260040160206040518083038186803b15801561232557600080fd5b505afa158015612339573d6000803e3d6000fd5b505050506040513d601f19601f8201168201806040525081019061235d9190615047565b826001600160a01b03166317d69bc86040518163ffffffff1660e01b815260040160206040518083038186803b15801561239657600080fd5b505afa1580156123aa573d6000803e3d6000fd5b505050506040513d601f19601f820116820180604052508101906123ce9190615047565b836001600160a01b031663ade6e2aa6040518163ffffffff1660e01b815260040160206040518083038186803b15801561240757600080fd5b505afa15801561241b573d6000803e3d6000fd5b505050506040513d601f19601f8201168201806040525081019061243f9190615373565b945094509450945050612461565b509398509196509450909250612461915050565b9193509193565b600054610100900460ff16806124815750612481611a5b565b8061248f575060005460ff16155b6124ab5760405162461bcd60e51b815260040161059190615b30565b600054610100900460ff161580156124d6576000805460ff1961ff0019909116610100171660011790555b8015611b83576000805461ff001916905550565b600054610100900460ff16806125035750612503611a5b565b80612511575060005460ff16155b61252d5760405162461bcd60e51b815260040161059190615b30565b600054610100900460ff16158015612558576000805460ff1961ff0019909116610100171660011790555b606580546001600160a01b0319166001600160a01b0384169081179091556040516000907f8be0079c531659141344cd1fd0a4f28419497f9722a3daafe3b4186f6b6457e0908290a38015611af2576000805461ff00191690555050565b600081836125d75760405162461bcd60e51b8152600401610591919061561e565b5060008385816125e357fe5b0495945050505050565b6125f5614e98565b60008251600a81111561260457fe5b146126215760405162461bcd60e51b81526004016105919061585e565b60208201516001600160a01b031661264b5760405162461bcd60e51b8152600401610591906158ed565b60008260e001515160201415612676578260e001518060200190518101906126739190615373565b90505b600281106126965760405162461bcd60e51b8152600401610591906156fb565b604080516060810182526020808601516001600160a01b03168252608090950151948101949094528301525090565b6126cd614bd7565b805133906126db8282614c01565b82516001600160a01b0316600090815260d0602052604081205461270690600163ffffffff614c6216565b90508084602001511461272b5760405162461bcd60e51b8152600401610591906159f0565b83516001600160a01b03908116600090815260d060209081526040808320859055808801805189518616855260d384528285208786529093529281902091909155905186519151909291909116907f5d66689e2c864b4f21efd3988c0ce5dc8a197981b68e81ce73660e92394fe25f906127a6908590615ee1565b60405180910390a350505050565b6127bc614ec2565b60038251600a8111156127cb57fe5b14806127e3575060058251600a8111156127e157fe5b145b6127ff5760405162461bcd60e51b815260040161059190615c2c565b60208201516001600160a01b03166128295760405162461bcd60e51b815260040161059190615c48565b6040518060c0016040528083602001516001600160a01b031681526020018360800151815260200183604001516001600160a01b0316815260200183606001516001600160a01b031681526020018360c0015181526020018360a001518152509050919050565b612898614bd7565b805133906128a68282614c01565b6128b883600001518460200151614c87565b6128d45760405162461bcd60e51b815260040161059190615960565b60408301516001600160a01b0316331480612908575082600001516001600160a01b031683604001516001600160a01b0316145b6129245760405162461bcd60e51b815260040161059190615796565b60ca5460608401516040516302328d7360e31b81526001600160a01b03909216916311946b989161295791600401615504565b60206040518083038186803b15801561296f57600080fd5b505afa158015612983573d6000803e3d6000fd5b505050506040513d601f19601f820116820180604052508101906129a79190615309565b6129c35760405162461bcd60e51b815260040161059190615d9e565b600083606001519050806001600160a01b031663ade6e2aa6040518163ffffffff1660e01b815260040160206040518083038186803b158015612a0557600080fd5b505afa158015612a19573d6000803e3d6000fd5b505050506040513d601f19601f82011682018060405250810190612a3d9190615373565b4210612a5b5760405162461bcd60e51b815260040161059190615909565b83516001600160a01b0316600090815260d16020908152604080832082880151845290915290819020606086015160a08701516080880151935163155bf27360e31b815273__$ad55824aba51b408931ce9574ea670b4d6$__9463aadf939894612ace9490939092909190600401615ebd565b60006040518083038186803b158015612ae657600080fd5b505af4158015612afa573d6000803e3d6000fd5b505060cd54606087015160408089015160a08a0151915163dd2c99f760e01b81526001600160a01b03909416955063dd2c99f79450612b3e9390919060040161555d565b600060405180830381600087803b158015612b5857600080fd5b505af1158015612b6c573d6000803e3d6000fd5b5050505083604001516001600160a01b031684600001516001600160a01b031685606001516001600160a01b03167f2607e210004cef0ad6b3e6aedb778bffb03c1586f8dcf55d49afffde210d8bb187602001518860a00151604051612bd3929190615eea565b60405180910390a450505050565b612be9614ec2565b60048251600a811115612bf857fe5b1480612c10575060068251600a811115612c0e57fe5b145b612c2c5760405162461bcd60e51b815260040161059190615b13565b60208201516001600160a01b0316612c565760405162461bcd60e51b8152600401610591906156a4565b60408201516001600160a01b03166128295760405162461bcd60e51b815260040161059190615b9b565b612c88614bd7565b80513390612c968282614c01565b612ca883600001518460200151614c87565b612cc45760405162461bcd60e51b815260040161059190615960565b600083606001519050806001600160a01b031663ade6e2aa6040518163ffffffff1660e01b815260040160206040518083038186803b158015612d0657600080fd5b505afa158015612d1a573d6000803e3d6000fd5b505050506040513d601f19601f82011682018060405250810190612d3e9190615373565b4210612d5c5760405162461bcd60e51b815260040161059190615cba565b83516001600160a01b0316600090815260d16020908152604080832082880151845290915290819020606086015160a08701516080880151935163951dd8d360e01b815273__$ad55824aba51b408931ce9574ea670b4d6$__9463951dd8d394612dcf9490939092909190600401615ebd565b60006040518083038186803b158015612de757600080fd5b505af4158015612dfb573d6000803e3d6000fd5b505060cd54606087015160408089015160a08a0151915163fa93b2a560e01b81526001600160a01b03909416955063fa93b2a59450612e3f9390919060040161555d565b600060405180830381600087803b158015612e5957600080fd5b505af1158015612e6d573d6000803e3d6000fd5b5050505083604001516001600160a01b031684600001516001600160a01b031685606001516001600160a01b03167fbd023c53d293da163d185720d4274f4ddabc09d5304491a55abb296cc811d9fa87602001518860a00151604051612bd3929190615eea565b612edc614bd7565b80513390612eea8282614c01565b612efc83600001518460200151614c87565b612f185760405162461bcd60e51b815260040161059190615960565b60408301516001600160a01b0316331480612f4c575082600001516001600160a01b031683604001516001600160a01b0316145b612f685760405162461bcd60e51b81526004016105919061566a565b60ca54606084015160405163f9839d8960e01b81526001600160a01b039092169163f9839d8991612f9b91600401615504565b60206040518083038186803b158015612fb357600080fd5b505afa158015612fc7573d6000803e3d6000fd5b505050506040513d601f19601f82011682018060405250810190612feb9190615309565b6130075760405162461bcd60e51b815260040161059190615943565b600061301b84600001518560200151610acf565b5091505080600114156130ba5760a084015160608501516001600160a01b0316600090815260d660205260409020546130599163ffffffff614c6216565b6060850180516001600160a01b03908116600090815260d6602081815260408084209690965584518416835260d581528583205494519093168252909152919091205411156130ba5760405162461bcd60e51b815260040161059190615ac1565b83516001600160a01b0316600090815260d16020908152604080832082880151845290915290819020606086015160a0870151608088015193516301f974ab60e61b815273__$ad55824aba51b408931ce9574ea670b4d6$__94637e5d2ac09461312d9490939092909190600401615ebd565b60006040518083038186803b15801561314557600080fd5b505af4158015613159573d6000803e3d6000fd5b505060cd54606087015160408089015160a08a0151915163dd2c99f760e01b81526001600160a01b03909416955063dd2c99f7945061319d9390919060040161555d565b600060405180830381600087803b1580156131b757600080fd5b505af11580156131cb573d6000803e3d6000fd5b5050505083604001516001600160a01b031684600001516001600160a01b031685606001516001600160a01b03167fbfab88b861f171b7db714f00e5966131253918d55ddba816c3eb94657d10239087602001518860a00151604051612bd3929190615eea565b61323a614bd7565b805133906132488282614c01565b61325a83600001518460200151614c87565b6132765760405162461bcd60e51b815260040161059190615960565b61327e614de1565b600061329285600001518660200151610acf565b50915091506132a48260000151614cb4565b1561335757600082600001516000815181106132bc57fe5b60200260200101519050806001600160a01b031663ade6e2aa6040518163ffffffff1660e01b815260040160206040518083038186803b1580156132ff57600080fd5b505afa158015613313573d6000803e3d6000fd5b505050506040513d601f19601f820116820180604052508101906133379190615373565b42106133555760405162461bcd60e51b815260040161059190615b7e565b505b80600114156133af5760a085015160608601516001600160a01b0316600090815260d660205260409020546133919163ffffffff614cf216565b60608601516001600160a01b0316600090815260d660205260409020555b84516001600160a01b0316600090815260d16020908152604080832082890151845290915290819020606087015160a088015160808901519351630380bfdd60e61b815273__$ad55824aba51b408931ce9574ea670b4d6$__9463e02ff740946134229490939092909190600401615ebd565b60006040518083038186803b15801561343a57600080fd5b505af415801561344e573d6000803e3d6000fd5b505060cd5460608801516040808a015160a08b0151915163fa93b2a560e01b81526001600160a01b03909416955063fa93b2a594506134929390919060040161555d565b600060405180830381600087803b1580156134ac57600080fd5b505af11580156134c0573d6000803e3d6000fd5b5050505084604001516001600160a01b031685600001516001600160a01b031686606001516001600160a01b03167ffe86f7694b6c54a528acbe27be61dd4a85e9a89aeef7f650a1b439045ccee5a488602001518960a00151604051613527929190615eea565b60405180910390a45050505050565b61353e614ec2565b60018251600a81111561354d57fe5b1461356a5760405162461bcd60e51b815260040161059190615d49565b60208201516001600160a01b03166128295760405162461bcd60e51b815260040161059190615d82565b61359c614bd7565b805133906135aa8282614c01565b6135bc83600001518460200151614c87565b6135d85760405162461bcd60e51b815260040161059190615960565b60ca5460608401516040516302328d7360e31b81526001600160a01b03909216916311946b989161360b91600401615504565b60206040518083038186803b15801561362357600080fd5b505afa158015613637573d6000803e3d6000fd5b505050506040513d601f19601f8201168201806040525081019061365b9190615309565b6136775760405162461bcd60e51b81526004016105919061587a565b600083606001519050806001600160a01b031663ade6e2aa6040518163ffffffff1660e01b815260040160206040518083038186803b1580156136b957600080fd5b505afa1580156136cd573d6000803e3d6000fd5b505050506040513d601f19601f820116820180604052508101906136f19190615373565b421061370f5760405162461bcd60e51b815260040161059190615a63565b83516001600160a01b0316600090815260d16020908152604080832082880151845290915290819020606086015160a08701516080880151935163ef682c1b60e01b815273__$ad55824aba51b408931ce9574ea670b4d6$__9463ef682c1b946137829490939092909190600401615ebd565b60006040518083038186803b15801561379a57600080fd5b505af41580156137ae573d6000803e3d6000fd5b50505060408086015160a0870151915163051b0a4160e41b81526001600160a01b03851693506351b0a410926137e79291600401615544565b600060405180830381600087803b15801561380157600080fd5b505af1158015613815573d6000803e3d6000fd5b5050505083604001516001600160a01b031684600001516001600160a01b031685606001516001600160a01b03167f4d7f96086c92b2f9a254ad21548b1c1f2d99502c7949508866349b96bb1a8d8a87602001518860a00151604051612bd3929190615eea565b613884614ec2565b60028251600a81111561389357fe5b146138b05760405162461bcd60e51b815260040161059190615c81565b60208201516001600160a01b03166128295760405162461bcd60e51b8152600401610591906158d1565b6138e2614bd7565b805133906138f08282614c01565b61390283600001518460200151614c87565b61391e5760405162461bcd60e51b815260040161059190615960565b60408301516001600160a01b0316331480613952575082600001516001600160a01b031683604001516001600160a01b0316145b61396e5760405162461bcd60e51b815260040161059190615897565b600083606001519050806001600160a01b031663ade6e2aa6040518163ffffffff1660e01b815260040160206040518083038186803b1580156139b057600080fd5b505afa1580156139c4573d6000803e3d6000fd5b505050506040513d601f19601f820116820180604052508101906139e89190615373565b4210613a065760405162461bcd60e51b8152600401610591906156de565b83516001600160a01b0316600090815260d16020908152604080832082880151845290915290819020606086015160a087015160808801519351637b5c283560e01b815273__$ad55824aba51b408931ce9574ea670b4d6$__94637b5c283594613a799490939092909190600401615ebd565b60006040518083038186803b158015613a9157600080fd5b505af4158015613aa5573d6000803e3d6000fd5b50505060408086015160a087015191516356d878f760e01b81526001600160a01b03851693506356d878f792613ade9291600401615544565b600060405180830381600087803b158015613af857600080fd5b505af1158015613b0c573d6000803e3d6000fd5b5050505083604001516001600160a01b031684600001516001600160a01b031685606001516001600160a01b03167fdd96b18f26fd9950581b9fd821fa907fc318845fc4d220b825a7b19bfdd174e887602001518860a00151604051612bd3929190615eea565b613b7b614e17565b60088251600a811115613b8a57fe5b14613ba75760405162461bcd60e51b815260040161059190615d65565b60408201516001600160a01b0316613bd15760405162461bcd60e51b81526004016105919061597d565b506040805160608082018352838301516001600160a01b0390811683529084015116602082015260a0909201519082015290565b602081015160ca546040516302328d7360e31b81526001600160a01b03909116906311946b9890613c3a908490600401615504565b60206040518083038186803b158015613c5257600080fd5b505afa158015613c66573d6000803e3d6000fd5b505050506040513d601f19601f82011682018060405250810190613c8a9190615309565b613ca65760405162461bcd60e51b815260040161059190615dbb565b600080600080613cb585612203565b935093509350935080421015613cdd5760405162461bcd60e51b815260040161059190615c64565b613ce9838386846117f9565b613d055760405162461bcd60e51b815260040161059190615bb8565b6000613d1987602001518860400151610807565b9050856001600160a01b03166356d878f73389604001516040518363ffffffff1660e01b8152600401613d4d929190615544565b600060405180830381600087803b158015613d6757600080fd5b505af1158015613d7b573d6000803e3d6000fd5b505060cd54895160405163fa93b2a560e01b81526001600160a01b03909216935063fa93b2a59250613db491899190869060040161555d565b600060405180830381600087803b158015613dce57600080fd5b505af1158015613de2573d6000803e3d6000fd5b5050505086600001516001600160a01b0316336001600160a01b031688602001516001600160a01b03167f18fd144d7dbcbaa6f00fd47a84adc7dc3cc64a326ffa2dc7691a25e3837dba03888b6040015186604051613e43939291906155ac565b60405180910390a450505050505050565b613e5c614e17565b60078251600a811115613e6b57fe5b14613e885760405162461bcd60e51b815260040161059190615c0f565b60208201516001600160a01b0316613eb25760405162461bcd60e51b815260040161059190615717565b60408201516001600160a01b0316613edc5760405162461bcd60e51b815260040161059190615cd7565b604051806060016040528083602001516001600160a01b031681526020018360800151815260200183604001516001600160a01b03168152509050919050565b80513390613f2a8282614c01565b613f3c83600001518460200151614c87565b613f585760405162461bcd60e51b815260040161059190615960565b613f60614de1565b6000613f7485600001518660200151610acf565b5091509150600080613f898460000151614cb4565b90506000613f9a8560200151614cb4565b90508180613fa55750805b613fc15760405162461bcd60e51b815260040161059190615bd5565b81613fe4578460200151600081518110613fd757fe5b6020026020010151613ffa565b84518051600090613ff157fe5b60200260200101515b925080156140ae576000856020015160008151811061401557fe5b60200260200101519050806001600160a01b03166356d878f760cd60009054906101000a90046001600160a01b0316886080015160008151811061405557fe5b60200260200101516040518363ffffffff1660e01b815260040161407a929190615544565b600060405180830381600087803b15801561409457600080fd5b505af11580156140a8573d6000803e3d6000fd5b50505050505b50506000806000806140bf85612203565b9350935093509350804210156140e75760405162461bcd60e51b815260040161059190615926565b6140f3838386846117f9565b61410f5760405162461bcd60e51b815260040161059190615bb8565b60cc5460405163cd43fbfb60e01b815260009182916001600160a01b039091169063cd43fbfb90614146908c908c90600401615e76565b604080518083038186803b15801561415d57600080fd5b505afa158015614171573d6000803e3d6000fd5b505050506040513d601f19601f82011682018060405250810190614195919061538b565b91509150806141b65760405162461bcd60e51b815260040161059190615841565b60d160008d600001516001600160a01b03166001600160a01b0316815260200190815260200160002060008d602001518152602001908152602001600020600080820160006142059190614f13565b614213600183016000614f13565b614221600283016000614f13565b61422f600383016000614f13565b61423d600483016000614f13565b61424b600583016000614f13565b50508760011415614299576001600160a01b038616600090815260d6602052604090205461427f908363ffffffff614cf216565b6001600160a01b038716600090815260d660205260409020555b60cd546040808e0151905163fa93b2a560e01b81526001600160a01b039092169163fa93b2a5916142d1918a9190879060040161555d565b600060405180830381600087803b1580156142eb57600080fd5b505af11580156142ff573d6000803e3d6000fd5b5050505060008c60200151905060008d60400151905089896001600160a01b03168f600001516001600160a01b03167f522cda7dd0677ee4c9512efd8aa92af93de64b4c2fe2f8bfe7a9234a655a9bf5848887604051614361939291906155ac565b60405180910390a45050505050505050505050505050565b614381614f31565b600a8251600a81111561439057fe5b146143ad5760405162461bcd60e51b815260040161059190615687565b60208201516001600160a01b03166143d75760405162461bcd60e51b815260040161059190615807565b60408201516001600160a01b03166144015760405162461bcd60e51b8152600401610591906156c1565b8160e00151516020146144265760405162461bcd60e51b815260040161059190615c9d565b60008260e001518060200190518101906144409190615373565b90506040518060a0016040528084602001516001600160a01b0316815260200184604001516001600160a01b03168152602001846080015181526020018460a00151815260200182815250915050919050565b61449b614bd7565b6144ad81600001518260400151614c87565b6144c95760405162461bcd60e51b815260040161059190615960565b6144d1614de1565b60008060006144e885600001518660400151611992565b93509350935093508261450d5760405162461bcd60e51b815260040161059190615cf4565b600061452e6305f5e1006108a4858960600151611de190919063ffffffff16565b905060006145618760600151876060015160008151811061454b57fe5b6020026020010151614cf290919063ffffffff16565b111561459b578161457d828760a0015160008151811061454b57fe5b101561459b5760405162461bcd60e51b8152600401610591906159d3565b845180516000906145a857fe5b60200260200101516001600160a01b03166356d878f73388606001516040518363ffffffff1660e01b81526004016145e1929190615544565b600060405180830381600087803b1580156145fb57600080fd5b505af115801561460f573d6000803e3d6000fd5b505087516001600160a01b0316600090815260d760209081526040808320818c01518452909152812088518051919450919250829061464a57fe5b60200260200101519050866000015160008151811061466557fe5b602090810291909101015182546001600160a01b039081169116141561470157606088015160018301546146aa916001600160801b039091169063ffffffff614c6216565b6001830180546001600160801b0319166001600160801b0392831617908190556146dd91600160801b9091041684614c62565b6001830180546001600160801b03928316600160801b029216919091179055614769565b8651805160009061470e57fe5b602090810291909101015182546001600160a01b0319166001600160a01b0390911617825560608801516001830180546001600160801b0319166001600160801b03928316178216600160801b928616929092029190911790555b87516001600160a01b0316600090815260d160209081526040808320818c0151845290915280822090890151805173__$ad55824aba51b408931ce9574ea670b4d6$__9363e02ff7409392916147bb57fe5b60200260200101518660006040518563ffffffff1660e01b81526004016147e59493929190615ebd565b60006040518083038186803b1580156147fd57600080fd5b505af4158015614811573d6000803e3d6000fd5b505089516001600160a01b0316600090815260d160209081526040808320818e0151845290915281208a51805173__$ad55824aba51b408931ce9574ea670b4d6$__9550637b5c283594509192909161486657fe5b60200260200101518b6060015160006040518563ffffffff1660e01b81526004016148949493929190615ebd565b60006040518083038186803b1580156148ac57600080fd5b505af41580156148c0573d6000803e3d6000fd5b505050506149148360d660008a604001516000815181106148dd57fe5b60200260200101516001600160a01b03166001600160a01b0316815260200190815260200160002054614cf290919063ffffffff16565b60d66000896040015160008151811061492957fe5b60200260200101516001600160a01b03166001600160a01b031681526020019081526020016000208190555060cd60009054906101000a90046001600160a01b03166001600160a01b031663fa93b2a5886040015160008151811061498a57fe5b60200260200101518a60200151866040518463ffffffff1660e01b81526004016149b69392919061555d565b600060405180830381600087803b1580156149d057600080fd5b505af11580156149e4573d6000803e3d6000fd5b50505050806001600160a01b031688600001516001600160a01b0316336001600160a01b03167ff1cdf103e4464ebfbacc075b979fd5bc74d98a811f6933d668ecf23d4e6285118b6020015189888e606001518f60400151604051614a4d9594939291906155cd565b60405180910390a45050505050505050565b614a67614f72565b60098251600a811115614a7657fe5b14614a935760405162461bcd60e51b815260040161059190615a2a565b60408201516001600160a01b0316614abd5760405162461bcd60e51b815260040161059190615bf2565b50604080518082018252908201516001600160a01b0316815260e090910151602082015290565b614aec614bd7565b805160cf54600160b01b900460ff1615614b2557614b0981614d34565b614b255760405162461bcd60e51b815260040161059190615e2b565b815160208301516040516309c23da560e41b81526001600160a01b0390921691639c23da5091614b5a91339190600401615518565b600060405180830381600087803b158015614b7457600080fd5b505af1158015614b88573d6000803e3d6000fd5b5050505081600001516001600160a01b0316336001600160a01b03167f8750bdaf6e88201790ee2765fea3ac73b514a52658c818723a30de91029ad00084602001516040516107fb919061561e565b60cf54600160a01b900460ff16156109ad5760405162461bcd60e51b815260040161059190615d11565b806001600160a01b0316826001600160a01b03161480614c4657506001600160a01b03808216600090815260d2602090815260408083209386168352929052205460ff165b611af25760405162461bcd60e51b815260040161059190615631565b6000828201838110156108b05760405162461bcd60e51b8152600401610591906157b3565b600080821180156108b05750506001600160a01b0391909116600090815260d06020526040902054101590565b60008082511180156108b3575060006001600160a01b031682600081518110614cd957fe5b60200260200101516001600160a01b0316141592915050565b60006108b083836040518060400160405280601e81526020017f536166654d6174683a207375627472616374696f6e206f766572666c6f770000815250614db5565b60ca546040516351572a2d60e11b81526000916001600160a01b03169063a2ae545a90614d65908590600401615504565b60206040518083038186803b158015614d7d57600080fd5b505afa158015614d91573d6000803e3d6000fd5b505050506040513d601f19601f820116820180604052508101906108b39190615309565b60008184841115614dd95760405162461bcd60e51b8152600401610591919061561e565b505050900390565b6040518060c001604052806060815260200160608152602001606081526020016060815260200160608152602001606081525090565b604080516060810182526000808252602082018190529181019190915290565b604080516101008101909152806000815260200160006001600160a01b0316815260200160006001600160a01b0316815260200160006001600160a01b03168152602001600081526020016000815260200160008152602001606081525090565b604051806060016040528060006001600160a01b0316815260200160008152602001600081525090565b6040518060c0016040528060006001600160a01b031681526020016000815260200160006001600160a01b0316815260200160006001600160a01b0316815260200160008152602001600081525090565b5080546000825590600052602060002090810190611b839190614f8a565b6040518060a0016040528060006001600160a01b0316815260200160006001600160a01b031681526020016000815260200160008152602001600081525090565b60408051808201909152600081526060602082015290565b610abd91905b80821115614fa45760008155600101614f90565b5090565b80356108b381615f1f565b600082601f830112614fc3578081fd5b813567ffffffffffffffff811115614fd9578182fd5b614fec601f8201601f1916602001615ef8565b915080825283602082850101111561500357600080fd5b8060208401602084013760009082016020015292915050565b8035600b81106108b357600080fd5b60006020828403121561503c578081fd5b81356108b081615f1f565b600060208284031215615058578081fd5b81516108b081615f1f565b60008060408385031215615075578081fd5b823561508081615f1f565b9150602083013561509081615f1f565b809150509250929050565b600080600080608085870312156150b0578182fd5b84356150bb81615f1f565b935060208501356150cb81615f1f565b925060408501356150db81615f1f565b9396929550929360600135925050565b60008060008060008060c08789031215615103578182fd5b865161510e81615f1f565b602088015190965061511f81615f1f565b604088015190955061513081615f1f565b80945050606087015192506080870151915060a087015161515081615f34565b809150509295509295509295565b60008060408385031215615170578182fd5b823561517b81615f1f565b9150602083013561509081615f34565b6000806040838503121561519d578182fd5b82356151a881615f1f565b946020939093013593505050565b600060208083850312156151c8578182fd5b823567ffffffffffffffff808211156151df578384fd5b81850186601f8201126151f0578485fd5b8035925081831115615200578485fd5b61520d8485850201615ef8565b83815284810190828601875b868110156152de578135850161010080601f19838f0301121561523a578a8bfd5b61524381615ef8565b61524f8e8c850161501c565b8152604061525f8f828601614fa8565b8c8301526152708f60608601614fa8565b9082015260806152828f858301614fa8565b606083015260a0808501358284015260c085013581840152505060e083013560c082015281830135898111156152b6578c8dfd5b6152c48f8d83870101614fb3565b60e083015250865250509287019290870190600101615219565b50909998505050505050505050565b6000602082840312156152fe578081fd5b81356108b081615f34565b60006020828403121561531a578081fd5b81516108b081615f34565b600080600060608486031215615339578283fd5b835161534481615f34565b602085015160409095015190969495509392505050565b60006020828403121561536c578081fd5b5035919050565b600060208284031215615384578081fd5b5051919050565b6000806040838503121561539d578182fd5b82519150602083015161509081615f34565b6000815180845260208085019450808401835b838110156153e75781516001600160a01b0316875295820195908201906001016153c2565b509495945050505050565b6000815180845260208085019450808401835b838110156153e757815187529582019590820190600101615405565b60008151808452815b818110156154465760208185018101518683018201520161542a565b818111156154575782602083870101525b50601f01601f19169290920160200192915050565b6000815160c0845261548160c08501826153af565b60208401519150848103602086015261549a81836153af565b6040850151925085810360408701526154b381846153af565b9150506060840151915084810360608601526154cf81836153f2565b6080850151925085810360808701526154e881846153f2565b91505060a0840151915084810360a086015261053581836153f2565b6001600160a01b0391909116815260200190565b6001600160a01b038316815260406020820181905260009061553c90830184615421565b949350505050565b6001600160a01b03929092168252602082015260400190565b6001600160a01b039384168152919092166020820152604081019190915260600190565b6001600160a01b03948516815292841660208401529083166040830152909116606082015260800190565b6001600160a01b039390931683526020830191909152604082015260600190565b6001600160a01b03959095168552602085019390935260408401919091526060830152608082015260a00190565b901515815260200190565b92151583526020830191909152604082015260600190565b6000602082526108b06020830184615421565b602080825260029082015261219b60f11b604082015260600190565b60208082526003908201526210cc4d60ea1b604082015260600190565b60208082526003908201526204332360ec1b604082015260600190565b60208082526003908201526208262760eb1b604082015260600190565b60208082526003908201526241313160e81b604082015260600190565b60208082526003908201526204132360ec1b604082015260600190565b60208082526003908201526221991b60e91b604082015260600190565b602080825260029082015261413360f01b604082015260600190565b60208082526003908201526220989b60e91b604082015260600190565b60208082526026908201527f4f776e61626c653a206e6577206f776e657220697320746865207a65726f206160408201526564647265737360d01b606082015260800190565b602080825260029082015261219960f11b604082015260600190565b60208082526003908201526221989b60e91b604082015260600190565b6020808252601b908201527f536166654d6174683a206164646974696f6e206f766572666c6f770000000000604082015260600190565b60208082526003908201526204331360ec1b604082015260600190565b60208082526003908201526241313960e81b604082015260600190565b60208082526003908201526243313360e81b604082015260600190565b60208082526003908201526221999960e91b604082015260600190565b602080825260029082015261413160f01b604082015260600190565b60208082526003908201526243323360e81b604082015260600190565b60208082526003908201526243323560e81b604082015260600190565b60208082526003908201526243313160e81b604082015260600190565b602080825260029082015261413760f01b604082015260600190565b602080825260029082015261209960f11b604082015260600190565b60208082526003908201526208662760eb1b604082015260600190565b60208082526003908201526243333160e81b604082015260600190565b60208082526003908201526243323160e81b604082015260600190565b60208082526003908201526243333560e81b604082015260600190565b602080825260039082015262104c4d60ea1b604082015260600190565b60208082526003908201526221999b60e91b604082015260600190565b602080825260029082015261433160f01b604082015260600190565b60208082526003908201526210cccd60ea1b604082015260600190565b60208082526003908201526243313560e81b604082015260600190565b60208082526003908201526221989960e91b604082015260600190565b60208082526003908201526220991960e91b604082015260600190565b602080825260029082015261433760f01b604082015260600190565b60208082526003908201526210cc8d60ea1b604082015260600190565b60208082526021908201527f536166654d6174683a206d756c7469706c69636174696f6e206f766572666c6f6040820152607760f81b606082015260800190565b60208082526003908201526243333760e81b604082015260600190565b6020808252818101527f4f776e61626c653a2063616c6c6572206973206e6f7420746865206f776e6572604082015260600190565b60208082526003908201526204131360ec1b604082015260600190565b6020808252602e908201527f436f6e747261637420696e7374616e63652068617320616c726561647920626560408201526d195b881a5b9a5d1a585b1a5e995960921b606082015260800190565b60208082526003908201526221991960e91b604082015260600190565b60208082526003908201526220989960e91b604082015260600190565b60208082526003908201526243323960e81b604082015260600190565b60208082526003908201526204333360ec1b604082015260600190565b60208082526003908201526241323360e81b604082015260600190565b60208082526003908201526241313560e81b604082015260600190565b602080825260029082015261082760f31b604082015260600190565b602080825260029082015261413960f01b604082015260600190565b60208082526003908201526208664760eb1b604082015260600190565b602080825260029082015261209b60f11b604082015260600190565b60208082526003908201526241323160e81b604082015260600190565b60208082526003908201526243313960e81b604082015260600190565b60208082526003908201526241313760e81b604082015260600190565b60208082526003908201526243333360e81b604082015260600190565b60208082526002908201526110cd60f21b604082015260600190565b602080825260029082015261433960f01b604082015260600190565b602080825260029082015261104d60f21b604082015260600190565b60208082526003908201526241313360e81b604082015260600190565b602080825260029082015261413560f01b604082015260600190565b60208082526003908201526243313760e81b604082015260600190565b60208082526003908201526243323760e81b604082015260600190565b6020808252601f908201527f5265656e7472616e637947756172643a207265656e7472616e742063616c6c00604082015260600190565b602080825260029082015261086760f31b604082015260600190565b602080825260029082015261433360f01b604082015260600190565b602080825260029082015261433560f01b604082015260600190565b6000602082526108b0602083018461546c565b600060408252615e89604083018561546c565b90508260208301529392505050565b600060608252615eab606083018661546c565b60208301949094525060400152919050565b9384526001600160a01b039290921660208401526040830152606082015260800190565b90815260200190565b918252602082015260400190565b60405181810167ffffffffffffffff81118282101715615f1757600080fd5b604052919050565b6001600160a01b0381168114611b8357600080fd5b8015158114611b8357600080fdfea2646970667358221220dfce1d982e7a5bf65379a9089f4723ea08b8accdefaffee5d8712cc17849737864736f6c634300060a0033",
  "linkReferences": {
    "contracts/packages/opyn/libs/MarginVault.sol": {
      "MarginVault": [
        {
          "length": 20,
          "start": 10946
        },
        {
          "length": 20,
          "start": 11715
        },
        {
          "length": 20,
          "start": 12577
        },
        {
          "length": 20,
          "start": 13334
        },
        {
          "length": 20,
          "start": 14198
        },
        {
          "length": 20,
          "start": 14957
        },
        {
          "length": 20,
          "start": 18362
        },
        {
          "length": 20,
          "start": 18529
        }
      ]
    }
  },
  "deployedLinkReferences": {
    "contracts/packages/opyn/libs/MarginVault.sol": {
      "MarginVault": [
        {
          "length": 20,
          "start": 10913
        },
        {
          "length": 20,
          "start": 11682
        },
        {
          "length": 20,
          "start": 12544
        },
        {
          "length": 20,
          "start": 13301
        },
        {
          "length": 20,
          "start": 14165
        },
        {
          "length": 20,
          "start": 14924
        },
        {
          "length": 20,
          "start": 18329
        },
        {
          "length": 20,
          "start": 18496
        }
      ]
    }
  }
}