{
  "_format": "hh-sol-artifact-1",
  "contractName": "OptionRegistry",
  "sourceName": "contracts/OptionRegistry.sol",
  "abi": [
    {
      "inputs": [
        {
          "internalType": "address",
          "name": "_collateralAsset",
          "type": "address"
        },
        {
          "internalType": "address",
          "name": "_oTokenFactory",
          "type": "address"
        },
        {
          "internalType": "address",
          "name": "_gammaController",
          "type": "address"
        },
        {
          "internalType": "address",
          "name": "_marginPool",
          "type": "address"
        },
        {
          "internalType": "address",
          "name": "_liquidityPool",
          "type": "address"
        },
        {
          "internalType": "address",
          "name": "_addressBook",
          "type": "address"
        },
        {
          "internalType": "address",
          "name": "_authority",
          "type": "address"
        }
      ],
      "stateMutability": "nonpayable",
      "type": "constructor"
    },
    {
      "inputs": [],
      "name": "AlreadyExpired",
      "type": "error"
    },
    {
      "inputs": [],
      "name": "HealthyVault",
      "type": "error"
    },
    {
      "inputs": [],
      "name": "InsufficientBalance",
      "type": "error"
    },
    {
      "inputs": [],
      "name": "InvalidCollateral",
      "type": "error"
    },
    {
      "inputs": [],
      "name": "NoVault",
      "type": "error"
    },
    {
      "inputs": [],
      "name": "NonExistentSeries",
      "type": "error"
    },
    {
      "inputs": [],
      "name": "NotExpired",
      "type": "error"
    },
    {
      "inputs": [],
      "name": "NotKeeper",
      "type": "error"
    },
    {
      "inputs": [],
      "name": "NotLiquidityPool",
      "type": "error"
    },
    {
      "inputs": [],
      "name": "UNAUTHORIZED",
      "type": "error"
    },
    {
      "inputs": [],
      "name": "VaultNotLiquidated",
      "type": "error"
    },
    {
      "anonymous": false,
      "inputs": [
        {
          "indexed": false,
          "internalType": "contract IAuthority",
          "name": "authority",
          "type": "address"
        }
      ],
      "name": "AuthorityUpdated",
      "type": "event"
    },
    {
      "anonymous": false,
      "inputs": [
        {
          "indexed": false,
          "internalType": "address",
          "name": "token",
          "type": "address"
        }
      ],
      "name": "OptionTokenCreated",
      "type": "event"
    },
    {
      "anonymous": false,
      "inputs": [
        {
          "indexed": true,
          "internalType": "address",
          "name": "series",
          "type": "address"
        },
        {
          "indexed": false,
          "internalType": "uint256",
          "name": "vaultId",
          "type": "uint256"
        },
        {
          "indexed": false,
          "internalType": "uint256",
          "name": "closedAmount",
          "type": "uint256"
        }
      ],
      "name": "OptionsContractClosed",
      "type": "event"
    },
    {
      "anonymous": false,
      "inputs": [
        {
          "indexed": true,
          "internalType": "address",
          "name": "series",
          "type": "address"
        },
        {
          "indexed": false,
          "internalType": "uint256",
          "name": "vaultId",
          "type": "uint256"
        },
        {
          "indexed": false,
          "internalType": "uint256",
          "name": "optionsAmount",
          "type": "uint256"
        }
      ],
      "name": "OptionsContractOpened",
      "type": "event"
    },
    {
      "anonymous": false,
      "inputs": [
        {
          "indexed": true,
          "internalType": "address",
          "name": "series",
          "type": "address"
        },
        {
          "indexed": false,
          "internalType": "uint256",
          "name": "collateralReturned",
          "type": "uint256"
        },
        {
          "indexed": false,
          "internalType": "uint256",
          "name": "collateralLost",
          "type": "uint256"
        },
        {
          "indexed": false,
          "internalType": "uint256",
          "name": "amountLost",
          "type": "uint256"
        }
      ],
      "name": "OptionsContractSettled",
      "type": "event"
    },
    {
      "anonymous": false,
      "inputs": [
        {
          "indexed": false,
          "internalType": "address",
          "name": "series",
          "type": "address"
        },
        {
          "indexed": false,
          "internalType": "uint256",
          "name": "underlyingAmount",
          "type": "uint256"
        },
        {
          "indexed": false,
          "internalType": "uint256",
          "name": "strikeAmount",
          "type": "uint256"
        }
      ],
      "name": "SeriesRedeemed",
      "type": "event"
    },
    {
      "anonymous": false,
      "inputs": [
        {
          "indexed": true,
          "internalType": "address",
          "name": "series",
          "type": "address"
        },
        {
          "indexed": false,
          "internalType": "uint256",
          "name": "vaultId",
          "type": "uint256"
        },
        {
          "indexed": false,
          "internalType": "uint256",
          "name": "amountLiquidated",
          "type": "uint256"
        },
        {
          "indexed": false,
          "internalType": "uint256",
          "name": "collateralLiquidated",
          "type": "uint256"
        }
      ],
      "name": "VaultLiquidationRegistered",
      "type": "event"
    },
    {
      "inputs": [],
      "name": "addressBook",
      "outputs": [
        {
          "internalType": "contract AddressBookInterface",
          "name": "",
          "type": "address"
        }
      ],
      "stateMutability": "view",
      "type": "function"
    },
    {
      "inputs": [
        {
          "internalType": "uint256",
          "name": "vaultId",
          "type": "uint256"
        }
      ],
      "name": "adjustCollateral",
      "outputs": [],
      "stateMutability": "nonpayable",
      "type": "function"
    },
    {
      "inputs": [
        {
          "internalType": "uint256",
          "name": "vaultId",
          "type": "uint256"
        }
      ],
      "name": "adjustCollateralCaller",
      "outputs": [],
      "stateMutability": "nonpayable",
      "type": "function"
    },
    {
      "inputs": [],
      "name": "authority",
      "outputs": [
        {
          "internalType": "contract IAuthority",
          "name": "",
          "type": "address"
        }
      ],
      "stateMutability": "view",
      "type": "function"
    },
    {
      "inputs": [],
      "name": "callLowerHealthFactor",
      "outputs": [
        {
          "internalType": "uint64",
          "name": "",
          "type": "uint64"
        }
      ],
      "stateMutability": "view",
      "type": "function"
    },
    {
      "inputs": [],
      "name": "callUpperHealthFactor",
      "outputs": [
        {
          "internalType": "uint64",
          "name": "",
          "type": "uint64"
        }
      ],
      "stateMutability": "view",
      "type": "function"
    },
    {
      "inputs": [
        {
          "internalType": "uint256",
          "name": "vaultId",
          "type": "uint256"
        }
      ],
      "name": "checkVaultHealth",
      "outputs": [
        {
          "internalType": "bool",
          "name": "isBelowMin",
          "type": "bool"
        },
        {
          "internalType": "bool",
          "name": "isAboveMax",
          "type": "bool"
        },
        {
          "internalType": "uint256",
          "name": "healthFactor",
          "type": "uint256"
        },
        {
          "internalType": "uint256",
          "name": "upperHealthFactor",
          "type": "uint256"
        },
        {
          "internalType": "uint256",
          "name": "collatRequired",
          "type": "uint256"
        },
        {
          "internalType": "address",
          "name": "collatAsset",
          "type": "address"
        }
      ],
      "stateMutability": "view",
      "type": "function"
    },
    {
      "inputs": [
        {
          "internalType": "address",
          "name": "_series",
          "type": "address"
        },
        {
          "internalType": "uint256",
          "name": "amount",
          "type": "uint256"
        }
      ],
      "name": "close",
      "outputs": [
        {
          "internalType": "bool",
          "name": "",
          "type": "bool"
        },
        {
          "internalType": "uint256",
          "name": "",
          "type": "uint256"
        }
      ],
      "stateMutability": "nonpayable",
      "type": "function"
    },
    {
      "inputs": [],
      "name": "collateralAsset",
      "outputs": [
        {
          "internalType": "address",
          "name": "",
          "type": "address"
        }
      ],
      "stateMutability": "view",
      "type": "function"
    },
    {
      "inputs": [
        {
          "internalType": "uint256",
          "name": "strikePrice",
          "type": "uint256"
        },
        {
          "internalType": "address",
          "name": "collateral",
          "type": "address"
        }
      ],
      "name": "formatStrikePrice",
      "outputs": [
        {
          "internalType": "uint256",
          "name": "",
          "type": "uint256"
        }
      ],
      "stateMutability": "view",
      "type": "function"
    },
    {
      "inputs": [
        {
          "components": [
            {
              "internalType": "uint64",
              "name": "expiration",
              "type": "uint64"
            },
            {
              "internalType": "uint128",
              "name": "strike",
              "type": "uint128"
            },
            {
              "internalType": "bool",
              "name": "isPut",
              "type": "bool"
            },
            {
              "internalType": "address",
              "name": "underlying",
              "type": "address"
            },
            {
              "internalType": "address",
              "name": "strikeAsset",
              "type": "address"
            },
            {
              "internalType": "address",
              "name": "collateral",
              "type": "address"
            }
          ],
          "internalType": "struct Types.OptionSeries",
          "name": "series",
          "type": "tuple"
        },
        {
          "internalType": "uint256",
          "name": "amount",
          "type": "uint256"
        }
      ],
      "name": "getCollateral",
      "outputs": [
        {
          "internalType": "uint256",
          "name": "",
          "type": "uint256"
        }
      ],
      "stateMutability": "view",
      "type": "function"
    },
    {
      "inputs": [
        {
          "components": [
            {
              "internalType": "uint64",
              "name": "expiration",
              "type": "uint64"
            },
            {
              "internalType": "uint128",
              "name": "strike",
              "type": "uint128"
            },
            {
              "internalType": "bool",
              "name": "isPut",
              "type": "bool"
            },
            {
              "internalType": "address",
              "name": "underlying",
              "type": "address"
            },
            {
              "internalType": "address",
              "name": "strikeAsset",
              "type": "address"
            },
            {
              "internalType": "address",
              "name": "collateral",
              "type": "address"
            }
          ],
          "internalType": "struct Types.OptionSeries",
          "name": "_series",
          "type": "tuple"
        }
      ],
      "name": "getIssuanceHash",
      "outputs": [
        {
          "internalType": "bytes32",
          "name": "",
          "type": "bytes32"
        }
      ],
      "stateMutability": "pure",
      "type": "function"
    },
    {
      "inputs": [
        {
          "internalType": "address",
          "name": "underlying",
          "type": "address"
        },
        {
          "internalType": "address",
          "name": "strikeAsset",
          "type": "address"
        },
        {
          "internalType": "uint256",
          "name": "expiration",
          "type": "uint256"
        },
        {
          "internalType": "bool",
          "name": "isPut",
          "type": "bool"
        },
        {
          "internalType": "uint256",
          "name": "strike",
          "type": "uint256"
        },
        {
          "internalType": "address",
          "name": "collateral",
          "type": "address"
        }
      ],
      "name": "getOtoken",
      "outputs": [
        {
          "internalType": "address",
          "name": "",
          "type": "address"
        }
      ],
      "stateMutability": "view",
      "type": "function"
    },
    {
      "inputs": [
        {
          "components": [
            {
              "internalType": "uint64",
              "name": "expiration",
              "type": "uint64"
            },
            {
              "internalType": "uint128",
              "name": "strike",
              "type": "uint128"
            },
            {
              "internalType": "bool",
              "name": "isPut",
              "type": "bool"
            },
            {
              "internalType": "address",
              "name": "underlying",
              "type": "address"
            },
            {
              "internalType": "address",
              "name": "strikeAsset",
              "type": "address"
            },
            {
              "internalType": "address",
              "name": "collateral",
              "type": "address"
            }
          ],
          "internalType": "struct Types.OptionSeries",
          "name": "_series",
          "type": "tuple"
        }
      ],
      "name": "getSeries",
      "outputs": [
        {
          "internalType": "address",
          "name": "",
          "type": "address"
        }
      ],
      "stateMutability": "view",
      "type": "function"
    },
    {
      "inputs": [
        {
          "internalType": "bytes32",
          "name": "issuanceHash",
          "type": "bytes32"
        }
      ],
      "name": "getSeriesAddress",
      "outputs": [
        {
          "internalType": "address",
          "name": "",
          "type": "address"
        }
      ],
      "stateMutability": "view",
      "type": "function"
    },
    {
      "inputs": [
        {
          "internalType": "address",
          "name": "series",
          "type": "address"
        }
      ],
      "name": "getSeriesInfo",
      "outputs": [
        {
          "components": [
            {
              "internalType": "uint64",
              "name": "expiration",
              "type": "uint64"
            },
            {
              "internalType": "uint128",
              "name": "strike",
              "type": "uint128"
            },
            {
              "internalType": "bool",
              "name": "isPut",
              "type": "bool"
            },
            {
              "internalType": "address",
              "name": "underlying",
              "type": "address"
            },
            {
              "internalType": "address",
              "name": "strikeAsset",
              "type": "address"
            },
            {
              "internalType": "address",
              "name": "collateral",
              "type": "address"
            }
          ],
          "internalType": "struct Types.OptionSeries",
          "name": "",
          "type": "tuple"
        }
      ],
      "stateMutability": "view",
      "type": "function"
    },
    {
      "inputs": [
        {
          "components": [
            {
              "internalType": "uint64",
              "name": "expiration",
              "type": "uint64"
            },
            {
              "internalType": "uint128",
              "name": "strike",
              "type": "uint128"
            },
            {
              "internalType": "bool",
              "name": "isPut",
              "type": "bool"
            },
            {
              "internalType": "address",
              "name": "underlying",
              "type": "address"
            },
            {
              "internalType": "address",
              "name": "strikeAsset",
              "type": "address"
            },
            {
              "internalType": "address",
              "name": "collateral",
              "type": "address"
            }
          ],
          "internalType": "struct Types.OptionSeries",
          "name": "optionSeries",
          "type": "tuple"
        }
      ],
      "name": "issue",
      "outputs": [
        {
          "internalType": "address",
          "name": "",
          "type": "address"
        }
      ],
      "stateMutability": "nonpayable",
      "type": "function"
    },
    {
      "inputs": [
        {
          "internalType": "address",
          "name": "",
          "type": "address"
        }
      ],
      "name": "keeper",
      "outputs": [
        {
          "internalType": "bool",
          "name": "",
          "type": "bool"
        }
      ],
      "stateMutability": "view",
      "type": "function"
    },
    {
      "inputs": [],
      "name": "liquidityPool",
      "outputs": [
        {
          "internalType": "address",
          "name": "",
          "type": "address"
        }
      ],
      "stateMutability": "view",
      "type": "function"
    },
    {
      "inputs": [
        {
          "internalType": "address",
          "name": "_series",
          "type": "address"
        },
        {
          "internalType": "uint256",
          "name": "amount",
          "type": "uint256"
        },
        {
          "internalType": "uint256",
          "name": "collateralAmount",
          "type": "uint256"
        }
      ],
      "name": "open",
      "outputs": [
        {
          "internalType": "bool",
          "name": "",
          "type": "bool"
        },
        {
          "internalType": "uint256",
          "name": "",
          "type": "uint256"
        }
      ],
      "stateMutability": "nonpayable",
      "type": "function"
    },
    {
      "inputs": [],
      "name": "putLowerHealthFactor",
      "outputs": [
        {
          "internalType": "uint64",
          "name": "",
          "type": "uint64"
        }
      ],
      "stateMutability": "view",
      "type": "function"
    },
    {
      "inputs": [],
      "name": "putUpperHealthFactor",
      "outputs": [
        {
          "internalType": "uint64",
          "name": "",
          "type": "uint64"
        }
      ],
      "stateMutability": "view",
      "type": "function"
    },
    {
      "inputs": [
        {
          "internalType": "address",
          "name": "_series",
          "type": "address"
        }
      ],
      "name": "redeem",
      "outputs": [
        {
          "internalType": "uint256",
          "name": "",
          "type": "uint256"
        }
      ],
      "stateMutability": "nonpayable",
      "type": "function"
    },
    {
      "inputs": [
        {
          "internalType": "uint256",
          "name": "vaultId",
          "type": "uint256"
        }
      ],
      "name": "registerLiquidatedVault",
      "outputs": [],
      "stateMutability": "nonpayable",
      "type": "function"
    },
    {
      "inputs": [
        {
          "internalType": "address",
          "name": "",
          "type": "address"
        }
      ],
      "name": "seriesInfo",
      "outputs": [
        {
          "internalType": "uint64",
          "name": "expiration",
          "type": "uint64"
        },
        {
          "internalType": "uint128",
          "name": "strike",
          "type": "uint128"
        },
        {
          "internalType": "bool",
          "name": "isPut",
          "type": "bool"
        },
        {
          "internalType": "address",
          "name": "underlying",
          "type": "address"
        },
        {
          "internalType": "address",
          "name": "strikeAsset",
          "type": "address"
        },
        {
          "internalType": "address",
          "name": "collateral",
          "type": "address"
        }
      ],
      "stateMutability": "view",
      "type": "function"
    },
    {
      "inputs": [
        {
          "internalType": "contract IAuthority",
          "name": "_newAuthority",
          "type": "address"
        }
      ],
      "name": "setAuthority",
      "outputs": [],
      "stateMutability": "nonpayable",
      "type": "function"
    },
    {
      "inputs": [
        {
          "internalType": "uint64",
          "name": "_putLower",
          "type": "uint64"
        },
        {
          "internalType": "uint64",
          "name": "_putUpper",
          "type": "uint64"
        },
        {
          "internalType": "uint64",
          "name": "_callLower",
          "type": "uint64"
        },
        {
          "internalType": "uint64",
          "name": "_callUpper",
          "type": "uint64"
        }
      ],
      "name": "setHealthThresholds",
      "outputs": [],
      "stateMutability": "nonpayable",
      "type": "function"
    },
    {
      "inputs": [
        {
          "internalType": "address",
          "name": "_target",
          "type": "address"
        },
        {
          "internalType": "bool",
          "name": "_auth",
          "type": "bool"
        }
      ],
      "name": "setKeeper",
      "outputs": [],
      "stateMutability": "nonpayable",
      "type": "function"
    },
    {
      "inputs": [
        {
          "internalType": "address",
          "name": "_newLiquidityPool",
          "type": "address"
        }
      ],
      "name": "setLiquidityPool",
      "outputs": [],
      "stateMutability": "nonpayable",
      "type": "function"
    },
    {
      "inputs": [
        {
          "internalType": "address",
          "name": "_series",
          "type": "address"
        }
      ],
      "name": "settle",
      "outputs": [
        {
          "internalType": "bool",
          "name": "",
          "type": "bool"
        },
        {
          "internalType": "uint256",
          "name": "",
          "type": "uint256"
        },
        {
          "internalType": "uint256",
          "name": "",
          "type": "uint256"
        },
        {
          "internalType": "uint256",
          "name": "",
          "type": "uint256"
        }
      ],
      "stateMutability": "nonpayable",
      "type": "function"
    },
    {
      "inputs": [],
      "name": "vaultCount",
      "outputs": [
        {
          "internalType": "uint64",
          "name": "",
          "type": "uint64"
        }
      ],
      "stateMutability": "view",
      "type": "function"
    },
    {
      "inputs": [
        {
          "internalType": "address",
          "name": "",
          "type": "address"
        }
      ],
      "name": "vaultIds",
      "outputs": [
        {
          "internalType": "uint256",
          "name": "",
          "type": "uint256"
        }
      ],
      "stateMutability": "view",
      "type": "function"
    },
    {
      "inputs": [
        {
          "internalType": "uint256",
          "name": "vaultId",
          "type": "uint256"
        }
      ],
      "name": "wCollatLiquidatedVault",
      "outputs": [],
      "stateMutability": "nonpayable",
      "type": "function"
    }
  ],
  "bytecode": "0x610120604052792af80000000000002ee00000000000002af800000000000032c86005553480156200003057600080fd5b5060405162003d4338038062003d43833981016040819052620000539162000116565b600080546001600160a01b0319166001600160a01b03831690811790915560405190815281907f2f658b440c35314f52658ea8a740e05b284cdc84dc9ae01e891f21b8933e7cad9060200160405180910390a150506001600160a01b0395861660c05293851660805291841660a052831661010052600480549184166801000000000000000002600160401b600160e01b03199092169190911790551660e052620001ab565b80516001600160a01b03811681146200011157600080fd5b919050565b600080600080600080600060e0888a0312156200013257600080fd5b6200013d88620000f9565b96506200014d60208901620000f9565b95506200015d60408901620000f9565b94506200016d60608901620000f9565b93506200017d60808901620000f9565b92506200018d60a08901620000f9565b91506200019d60c08901620000f9565b905092959891949750929550565b60805160a05160c05160e05161010051613ab96200028a6000396000818161159901528181611bd901528181611f22015261292b015260008181610758015281816108f5015281816109be0152818161213f01526122020152600081816104520152818161145a015261287c015260008181610cc001528181610ece01528181611571015281816116c70152818161185001528181611aaf01528181611bb101528181611efa0152818161200401528181612640015281816127b2015281816129030152612b8001526000818161081201526111330152613ab96000f3fe608060405234801561001057600080fd5b50600436106101fb5760003560e01c806395a2251f1161011a578063c7bc163b116100ad578063dfeddb7e1161007c578063dfeddb7e146106d1578063e341c12c146106fa578063e49280cb1461070d578063e8cf860814610720578063f5887cdd1461075357600080fd5b8063c7bc163b146104b4578063c84feaca14610571578063d1b9e8531461058b578063dac9675b1461059e57600080fd5b8063aabaecd6116100e9578063aabaecd61461044d578063b0b96a3514610474578063b94020791461048e578063bf7e214f146104a157600080fd5b806395a2251f146103c95780639b8c8dc2146103dc578063a3895ce614610427578063a7c6a1001461043a57600080fd5b80635fb708cf116101925780637a9e5e4b116101615780637a9e5e4b1461035f57806389a86ad31461037257806389f928711461039c5780638cbb6511146103b657600080fd5b80635fb708cf146102ea57806363009ac3146102fd578063665a11ca146103105780636a256b291461032a57600080fd5b80632e79bf42116101ce5780632e79bf421461029157806332c926cb146102a457806341849afc146102b75780634c9a1c61146102d757600080fd5b80630187702014610200578063164e6ea9146102155780631c19975914610245578063210fc56a14610266575b600080fd5b61021361020e36600461321f565b61077a565b005b600554610228906001600160401b031681565b6040516001600160401b0390911681526020015b60405180910390f35b610258610253366004613373565b6107b3565b60405190815260200161023c565b61027961027436600461338f565b6107f3565b6040516001600160a01b03909116815260200161023c565b61025861029f3660046133ff565b6108f0565b6102136102b236600461342a565b610c1c565b6102586102c536600461321f565b60026020526000908152604090205481565b6102136102e536600461347e565b610c99565b6102796102f8366004613373565b61107a565b61021361030b36600461347e565b61142d565b60045461027990600160401b90046001600160a01b031681565b61033d61033836600461321f565b61174b565b604080519415158552602085019390935291830152606082015260800161023c565b61021361036d36600461321f565b61197a565b610385610380366004613497565b6119d6565b60408051921515835260208301919091520161023c565b60055461022890600160401b90046001600160401b031681565b6102796103c4366004613373565b611d11565b6102586103d736600461321f565b611d6f565b6103ef6103ea36600461347e565b611fd1565b604080519615158752941515602087015293850192909252606084015260808301526001600160a01b031660a082015260c00161023c565b6102586104353660046134cc565b612538565b600454610228906001600160401b031681565b6102797f000000000000000000000000000000000000000000000000000000000000000081565b60055461022890600160c01b90046001600160401b031681565b61021361049c36600461347e565b61260d565b600054610279906001600160a01b031681565b6105206104c236600461321f565b600160208190526000918252604090912080549181015460028201546003909201546001600160401b03841693600160401b81046001600160801b031693600160c01b90910460ff16926001600160a01b0390811692918116911686565b604080516001600160401b0390971687526001600160801b039095166020870152921515938501939093526001600160a01b03908116606085015291821660808401521660a082015260c00161023c565b60055461022890600160801b90046001600160401b031681565b6102136105993660046134fc565b61281e565b6106656105ac36600461321f565b6040805160c081018252600080825260208201819052918101829052606081018290526080810182905260a0810191909152506001600160a01b03908116600090815260016020818152604092839020835160c08101855281546001600160401b0381168252600160401b81046001600160801b031693820193909352600160c01b90920460ff16151593820193909352908201548316606082015260028201548316608082015260039091015490911660a082015290565b60405161023c919081516001600160401b031681526020808301516001600160801b0316908201526040808301511515908201526060808301516001600160a01b039081169183019190915260808084015182169083015260a092830151169181019190915260c00190565b6102796106df36600461347e565b6000908152600360205260409020546001600160a01b031690565b61021361070836600461347e565b612851565b61038561071b36600461352a565b6129b1565b61074361072e36600461321f565b60066020526000908152604090205460ff1681565b604051901515815260200161023c565b6102797f000000000000000000000000000000000000000000000000000000000000000081565b610782612c62565b600480546001600160a01b03909216600160401b0268010000000000000000600160e01b0319909216919091179055565b60006107ed826060015183608001518460a0015185600001516001600160401b0316866040015187602001516001600160801b0316612d19565b92915050565b60008073__$a949af228b7bd2e36efc48dbaaf0130ade$__63f7b98e1b7f0000000000000000000000000000000000000000000000000000000000000000858b8b61083e8a8a612538565b60405160e087901b6001600160e01b03191681526001600160a01b039586166004820152938516602485015291841660448401529092166064820152608481019190915260a4810189905287151560c482015260e40160206040518083038186803b1580156108ac57600080fd5b505af41580156108c0573d6000803e3d6000fd5b505050506040513d601f19601f820116820180604052508101906108e49190613556565b98975050505050505050565b6000807f00000000000000000000000000000000000000000000000000000000000000006001600160a01b031663cf28493f6040518163ffffffff1660e01b815260040160206040518083038186803b15801561094c57600080fd5b505afa158015610960573d6000803e3d6000fd5b505050506040513d601f19601f820116820180604052508101906109849190613556565b90506000816001600160a01b0316630b0509fb866060015187608001518860a001516402540be400896109b79190613589565b8a602001517f00000000000000000000000000000000000000000000000000000000000000006001600160a01b031663833b1fce6040518163ffffffff1660e01b815260040160206040518083038186803b158015610a1557600080fd5b505afa158015610a29573d6000803e3d6000fd5b505050506040513d601f19601f82011682018060405250810190610a4d9190613556565b60608d01516040516341976e0960e01b81526001600160a01b0391821660048201529116906341976e099060240160206040518083038186803b158015610a9357600080fd5b505afa158015610aa7573d6000803e3d6000fd5b505050506040513d601f19601f82011682018060405250810190610acb91906135ab565b8c600001518d60a001516001600160a01b031663313ce5676040518163ffffffff1660e01b815260040160206040518083038186803b158015610b0d57600080fd5b505afa158015610b21573d6000803e3d6000fd5b505050506040513d601f19601f82011682018060405250810190610b4591906135c4565b8e604001516040518a63ffffffff1660e01b8152600401610b6e999897969594939291906135e7565b60206040518083038186803b158015610b8657600080fd5b505afa158015610b9a573d6000803e3d6000fd5b505050506040513d601f19601f82011682018060405250810190610bbe91906135ab565b905060008560400151610bdc576005546001600160401b0316610bf0565b600554600160801b90046001600160401b03165b6001600160401b03169050612710610c08828461364b565b610c129190613589565b9695505050505050565b610c24612c62565b600580546001600160801b0316600160c01b6001600160401b039687160267ffffffffffffffff60801b191617600160801b94861694909402939093176fffffffffffffffffffffffffffffffff1916600160401b9285169290920267ffffffffffffffff1916919091179216919091179055565b610ca1612d8a565b60405163d99d13f560e01b8152306004820152602481018290526000907f00000000000000000000000000000000000000000000000000000000000000006001600160a01b03169063d99d13f59060440160006040518083038186803b158015610d0a57600080fd5b505afa158015610d1e573d6000803e3d6000fd5b505050506040513d6000823e601f3d908101601f19168201604052610d46919081019061375c565b90508060600151600081518110610d5f57610d5f61387c565b6020026020010151600014610dc65760405162461bcd60e51b815260206004820152602260248201527f5661756c74206861732073686f727420706f736974696f6e73205b616d6f756e604482015261745d60f01b60648201526084015b60405180910390fd5b80518051600091908290610ddc57610ddc61387c565b60200260200101516001600160a01b031614610e445760405162461bcd60e51b815260206004820152602160248201527f5661756c74206861732073686f727420706f736974696f6e73205b746f6b656e6044820152605d60f81b6064820152608401610dbd565b60008160a00151600081518110610e5d57610e5d61387c565b602002602001015111610eb25760405162461bcd60e51b815260206004820152601760248201527f5661756c7420686173206e6f20636f6c6c61746572616c0000000000000000006044820152606401610dbd565b73__$a949af228b7bd2e36efc48dbaaf0130ade$__63fd5b6dd57f00000000000000000000000000000000000000000000000000000000000000008360400151600081518110610f0457610f0461387c565b60200260200101518460a00151600081518110610f2357610f2361387c565b6020026020010151866040518563ffffffff1660e01b8152600401610f4b9493929190613892565b60006040518083038186803b158015610f6357600080fd5b505af4158015610f77573d6000803e3d6000fd5b50505050600460089054906101000a90046001600160a01b03166001600160a01b0316631e4bc5578260a00151600081518110610fb657610fb661387c565b602002602001015160016040518363ffffffff1660e01b8152600401610fe89291909182521515602082015260400190565b600060405180830381600087803b15801561100257600080fd5b505af1158015611016573d6000803e3d6000fd5b5050505061107681604001516000815181106110345761103461387c565b6020026020010151600460089054906101000a90046001600160a01b03168360a001516000815181106110695761106961387c565b6020026020010151612efe565b5050565b6000611084612f7d565b4282600001516001600160401b0316116110b15760405163506b27c560e11b815260040160405180910390fd5b60006110ce83602001516001600160801b03168460a00151612538565b90506000611106846060015185608001518660a0015187600001516001600160401b03168860400151876001600160801b0316612d19565b60a08501516060860151608087015187516040808a01519051630e4e99e360e01b81526001600160a01b037f000000000000000000000000000000000000000000000000000000000000000081166004830152958616602482015293851660448501529390911660648301526001600160801b03861660848301526001600160401b031660a482015290151560c482015290915060009073__$a949af228b7bd2e36efc48dbaaf0130ade$__90630e4e99e39060e40160206040518083038186803b1580156111d457600080fd5b505af41580156111e8573d6000803e3d6000fd5b505050506040513d601f19601f8201168201806040525081019061120c9190613556565b90506040518060c0016040528086600001516001600160401b03168152602001846001600160801b0316815260200186604001511515815260200186606001516001600160a01b0316815260200186608001516001600160a01b031681526020018660a001516001600160a01b031681525060016000836001600160a01b03166001600160a01b0316815260200190815260200160002060008201518160000160006101000a8154816001600160401b0302191690836001600160401b0316021790555060208201518160000160086101000a8154816001600160801b0302191690836001600160801b0316021790555060408201518160000160186101000a81548160ff02191690831515021790555060608201518160010160006101000a8154816001600160a01b0302191690836001600160a01b0316021790555060808201518160020160006101000a8154816001600160a01b0302191690836001600160a01b0316021790555060a08201518160030160006101000a8154816001600160a01b0302191690836001600160a01b03160217905550905050806003600084815260200190815260200160002060006101000a8154816001600160a01b0302191690836001600160a01b031602179055507ff434a81a703b3b06f1dd290881e157c47d663389196c88db9f57819ec6f6ae9f8160405161141d91906001600160a01b0391909116815260200190565b60405180910390a1949350505050565b611435612d8a565b60008060008061144485611fd1565b95509550505093509350806001600160a01b03167f00000000000000000000000000000000000000000000000000000000000000006001600160a01b0316146114a0576040516368f7a67560e11b815260040160405180910390fd5b831580156114ac575082155b156114ca576040516315fe9b6160e21b815260040160405180910390fd5b83156116285760048054604051631e4bc55760e01b815291820184905260006024830152600160401b90046001600160a01b031690631e4bc55790604401600060405180830381600087803b15801561152257600080fd5b505af1158015611536573d6000803e3d6000fd5b505060045461155a9250839150600160401b90046001600160a01b03163085612faf565b6040516347e200ad60e11b81526001600160a01b037f0000000000000000000000000000000000000000000000000000000000000000811660048301527f00000000000000000000000000000000000000000000000000000000000000008116602483015282166044820152606481018390526084810186905273__$a949af228b7bd2e36efc48dbaaf0130ade$__90638fc4015a9060a40160006040518083038186803b15801561160b57600080fd5b505af415801561161f573d6000803e3d6000fd5b50505050611744565b82156117445760048054604051631e4bc55760e01b815291820184905260016024830152600160401b90046001600160a01b031690631e4bc55790604401600060405180830381600087803b15801561168057600080fd5b505af1158015611694573d6000803e3d6000fd5b505060405163fd5b6dd560e01b815273__$a949af228b7bd2e36efc48dbaaf0130ade$__925063fd5b6dd591506116f5907f000000000000000000000000000000000000000000000000000000000000000090859087908b90600401613892565b60006040518083038186803b15801561170d57600080fd5b505af4158015611721573d6000803e3d6000fd5b50506004546117449250839150600160401b90046001600160a01b031684612efe565b5050505050565b600080600080611759612f7d565b6001600160a01b03858116600090815260016020818152604092839020835160c08101855281546001600160401b038116808352600160401b82046001600160801b031694830194909452600160c01b900460ff16151594810194909452918201548416606084015260028201548416608084015260039091015490921660a0820152906117fa5760405163117af06360e31b815260040160405180910390fd5b4281600001516001600160401b0316106118275760405163d0404f8560e01b815260040160405180910390fd5b6001600160a01b038681166000908152600260205260408082205490516315afd40960e01b81527f0000000000000000000000000000000000000000000000000000000000000000909316600484015260248301819052918190819073__$a949af228b7bd2e36efc48dbaaf0130ade$__906315afd4099060440160606040518083038186803b1580156118ba57600080fd5b505af41580156118ce573d6000803e3d6000fd5b505050506040513d601f19601f820116820180604052508101906118f291906138bb565b92509250925061191c8560a00151600460089054906101000a90046001600160a01b031685612efe565b60408051848152602081018490529081018290526001600160a01b038b16907ffd7eb2273d5660864e5ad7b3a1afd8ff16166a5c5fb2fe03c29f9fdbdc8930d49060600160405180910390a260019a92995090975095509350505050565b611982612c62565b600080546001600160a01b0319166001600160a01b0383169081179091556040519081527f2f658b440c35314f52658ea8a740e05b284cdc84dc9ae01e891f21b8933e7cad9060200160405180910390a150565b6000806119e1612f7d565b6001600160a01b03858116600090815260016020818152604092839020835160c08101855281546001600160401b038116808352600160401b82046001600160801b031694830194909452600160c01b900460ff16151594810194909452918201548416606084015260028201548416608084015260039091015490921660a0820152904210611a845760405163506b27c560e11b815260040160405180910390fd5b611a948160a00151333087612faf565b6001600160a01b0386166000908152600260205260409020547f00000000000000000000000000000000000000000000000000000000000000009080611b9a57604051636553690d60e11b81523060048201526001600160a01b0383169063caa6d21a9060240160206040518083038186803b158015611b1357600080fd5b505afa158015611b27573d6000803e3d6000fd5b505050506040513d601f19601f82011682018060405250810190611b4b91906135ab565b611b569060016138e9565b600480549192506001600160401b03909116906000611b7483613901565b91906101000a8154816001600160401b0302191690836001600160401b03160217905550505b604051633718f97560e01b81526001600160a01b037f0000000000000000000000000000000000000000000000000000000000000000811660048301527f00000000000000000000000000000000000000000000000000000000000000008116602483015289166044820152606481018790526084810182905260a48101889052600160c482015260009073__$a949af228b7bd2e36efc48dbaaf0130ade$__90633718f9759060e40160206040518083038186803b158015611c5c57600080fd5b505af4158015611c70573d6000803e3d6000fd5b505050506040513d601f19601f82011682018060405250810190611c9491906135ab565b60408051848152602081018390529192506001600160a01b038b16917f242b1ddd06a984a28045d1a261fcddca274c5f29be7c894def55d7b938d4c7ce910160405180910390a2611ce6893383612efe565b506001600160a01b038816600090815260026020526040902055506001925083915050935093915050565b600060036000611d4f846060015185608001518660a0015187600001516001600160401b0316886040015189602001516001600160801b0316612d19565b81526020810191909152604001600020546001600160a01b031692915050565b6001600160a01b038181166000908152600160208181526040808420815160c08101835281546001600160401b038116808352600160401b82046001600160801b031695830195909552600160c01b900460ff16151592810192909252928301548516606082015260028301548516608082015260039092015490931660a08201529091611e105760405163117af06360e31b815260040160405180910390fd5b4281600001516001600160401b031610611e3d5760405163d0404f8560e01b815260040160405180910390fd5b6040516370a0823160e01b81523360048201526000906001600160a01b038516906370a082319060240160206040518083038186803b158015611e7f57600080fd5b505afa158015611e93573d6000803e3d6000fd5b505050506040513d601f19601f82011682018060405250810190611eb791906135ab565b905080611ed757604051631e9acf1760e31b815260040160405180910390fd5b611ee384333084612faf565b6040516302e80dad60e61b81526001600160a01b037f0000000000000000000000000000000000000000000000000000000000000000811660048301527f000000000000000000000000000000000000000000000000000000000000000081166024830152851660448201526064810182905260009073__$a949af228b7bd2e36efc48dbaaf0130ade$__9063ba036b409060840160206040518083038186803b158015611f9057600080fd5b505af4158015611fa4573d6000803e3d6000fd5b505050506040513d601f19601f82011682018060405250810190611fc891906135ab565b95945050505050565b60405163d99d13f560e01b8152306004820152602481018290526000908190819081908190819081906001600160a01b037f0000000000000000000000000000000000000000000000000000000000000000169063d99d13f59060440160006040518083038186803b15801561204657600080fd5b505afa15801561205a573d6000803e3d6000fd5b505050506040513d6000823e601f3d908101601f19168201604052612082919081019061375c565b905060006001600083600001516000815181106120a1576120a161387c565b6020908102919091018101516001600160a01b0390811683528282019390935260409182016000908120835160c08101855281546001600160401b0381168252600160401b81046001600160801b031682860152600160c01b900460ff16151581860152600182015486166060820152600282015486166080820152600390910154851660a0820152835163cf28493f60e01b8152935190955090937f0000000000000000000000000000000000000000000000000000000000000000169263cf28493f926004808301939192829003018186803b15801561218257600080fd5b505afa158015612196573d6000803e3d6000fd5b505050506040513d601f19601f820116820180604052508101906121ba9190613556565b90506000816001600160a01b0316630b0509fb846060015185608001518660a0015188606001516000815181106121f3576121f361387c565b602002602001015188602001517f00000000000000000000000000000000000000000000000000000000000000006001600160a01b031663833b1fce6040518163ffffffff1660e01b815260040160206040518083038186803b15801561225957600080fd5b505afa15801561226d573d6000803e3d6000fd5b505050506040513d601f19601f820116820180604052508101906122919190613556565b60608b01516040516341976e0960e01b81526001600160a01b0391821660048201529116906341976e099060240160206040518083038186803b1580156122d757600080fd5b505afa1580156122eb573d6000803e3d6000fd5b505050506040513d601f19601f8201168201806040525081019061230f91906135ab565b8a600001518b60a001516001600160a01b031663313ce5676040518163ffffffff1660e01b815260040160206040518083038186803b15801561235157600080fd5b505afa158015612365573d6000803e3d6000fd5b505050506040513d601f19601f8201168201806040525081019061238991906135c4565b8c604001516040518a63ffffffff1660e01b81526004016123b2999897969594939291906135e7565b60206040518083038186803b1580156123ca57600080fd5b505afa1580156123de573d6000803e3d6000fd5b505050506040513d601f19601f8201168201806040525081019061240291906135ab565b905060008460a0015160008151811061241d5761241d61387c565b602002602001015190508161271082612436919061364b565b6124409190613589565b9850836040015161245c576005546001600160401b0316612470565b600554600160801b90046001600160401b03165b6001600160401b031697506000846040015161249e57600554600160401b90046001600160401b03166124b2565b600554600160c01b90046001600160401b03165b6001600160401b03169050888a11156124f15760019a506127106124d68a8561364b565b6124e09190613589565b6124ea9083613928565b9750612522565b808a10156125225760019b508161271061250b8b8661364b565b6125159190613589565b61251f9190613928565b97505b8460a00151965050505050505091939550919395565b60008061254a6402540be40085613589565b90506000836001600160a01b031663313ce5676040518163ffffffff1660e01b815260040160206040518083038186803b15801561258757600080fd5b505afa15801561259b573d6000803e3d6000fd5b505050506040513d601f19601f820116820180604052508101906125bf91906135c4565b60ff169050600881106125d4575090506107ed565b60006125e1826008613928565b90506125ee81600a613a23565b6125f982600a613a23565b6126039085613589565b610c12919061364b565b612615612d8a565b60405163f62fc0b360e01b815230600482015260248101829052600090819081906001600160a01b037f0000000000000000000000000000000000000000000000000000000000000000169063f62fc0b39060440160606040518083038186803b15801561268257600080fd5b505afa158015612696573d6000803e3d6000fd5b505050506040513d601f19601f820116820180604052508101906126ba9190613a2f565b919450925090506001600160a01b0383166126e85760405163df66968160e01b815260040160405180910390fd5b60408051858152602081018490529081018290526001600160a01b038416907f47aa675faf14c5e3b5da8d235f13812988463fbe9e8d3da67741f8c068e8132d9060600160405180910390a260048054604051631e4bc55760e01b815291820183905260016024830152600160401b90046001600160a01b031690631e4bc55790604401600060405180830381600087803b15801561278657600080fd5b505af115801561279a573d6000803e3d6000fd5b5050604051630fb0af3f60e31b8152600481018790527f00000000000000000000000000000000000000000000000000000000000000006001600160a01b03169250637d8579f89150602401600060405180830381600087803b15801561280057600080fd5b505af1158015612814573d6000803e3d6000fd5b5050505050505050565b612826612c62565b6001600160a01b03919091166000908152600660205260409020805460ff1916911515919091179055565b612859613049565b600080600061286784611fd1565b955095505050509250806001600160a01b03167f00000000000000000000000000000000000000000000000000000000000000006001600160a01b0316146128c2576040516368f7a67560e11b815260040160405180910390fd5b826128e0576040516315fe9b6160e21b815260040160405180910390fd5b6128ec81333085612faf565b6040516347e200ad60e11b81526001600160a01b037f0000000000000000000000000000000000000000000000000000000000000000811660048301527f00000000000000000000000000000000000000000000000000000000000000008116602483015282166044820152606481018390526084810185905273__$a949af228b7bd2e36efc48dbaaf0130ade$__90638fc4015a9060a40160006040518083038186803b15801561299d57600080fd5b505af4158015612814573d6000803e3d6000fd5b6000806129bc612f7d565b6001600160a01b03848116600090815260016020818152604092839020835160c08101855281546001600160401b038116808352600160401b82046001600160801b031694830194909452600160c01b900460ff16151594810194909452918201548416606084015260028201548416608084015260039091015490921660a082015290612a5d5760405163117af06360e31b815260040160405180910390fd5b4281600001516001600160401b031611612a8a5760405163506b27c560e11b815260040160405180910390fd5b6001600160a01b03851660009081526002602052604090205480612ac15760405163a1b86ccf60e01b815260040160405180910390fd5b6000612b4086886001600160a01b031663313ce5676040518163ffffffff1660e01b815260040160206040518083038186803b158015612b0057600080fd5b505afa158015612b14573d6000803e3d6000fd5b505050506040513d601f19601f82011682018060405250810190612b3891906135c4565b60ff16613184565b9050612b4e87333084612faf565b604051633f83640160e21b815260009073__$a949af228b7bd2e36efc48dbaaf0130ade$__9063fe0d900490612bae907f0000000000000000000000000000000000000000000000000000000000000000908c9087908990600401613892565b60206040518083038186803b158015612bc657600080fd5b505af4158015612bda573d6000803e3d6000fd5b505050506040513d601f19601f82011682018060405250810190612bfe91906135ab565b9050612c0f8460a001513383612efe565b60408051848152602081018490526001600160a01b038a16917f8b307ec2cdec0ea71518d1d82e315a365c5789f3e02e4466b9d886b3474b1793910160405180910390a260019890975095505050505050565b60008054906101000a90046001600160a01b03166001600160a01b0316630c340a246040518163ffffffff1660e01b815260040160206040518083038186803b158015612cae57600080fd5b505afa158015612cc2573d6000803e3d6000fd5b505050506040513d601f19601f82011682018060405250810190612ce69190613556565b6001600160a01b0316336001600160a01b031614612d175760405163075fd2b160e01b815260040160405180910390fd5b565b6040516bffffffffffffffffffffffff19606088811b8216602084015287811b8216603484015286901b166048820152605c810184905282151560f81b607c820152607d8101829052600090609d016040516020818303038152906040528051906020012090509695505050505050565b3360009081526006602052604090205460ff16158015612e3f575060008054906101000a90046001600160a01b03166001600160a01b0316630c340a246040518163ffffffff1660e01b815260040160206040518083038186803b158015612df157600080fd5b505afa158015612e05573d6000803e3d6000fd5b505050506040513d601f19601f82011682018060405250810190612e299190613556565b6001600160a01b0316336001600160a01b031614155b8015612ee0575060008054906101000a90046001600160a01b03166001600160a01b031663481c6a756040518163ffffffff1660e01b815260040160206040518083038186803b158015612e9257600080fd5b505afa158015612ea6573d6000803e3d6000fd5b505050506040513d601f19601f82011682018060405250810190612eca9190613556565b6001600160a01b0316336001600160a01b031614155b15612d1757604051631ea2564f60e31b815260040160405180910390fd5b600060405163a9059cbb60e01b81526001600160a01b03841660048201528260248201526000806044836000895af1915050612f39816131c0565b612f775760405162461bcd60e51b815260206004820152600f60248201526e1514905394d1915497d19052531151608a1b6044820152606401610dbd565b50505050565b600454600160401b90046001600160a01b03163314612d175760405163f539349760e01b815260040160405180910390fd5b600084905060006040516323b872dd60e01b81526001600160a01b03861660048201526001600160a01b03851660248201528360448201526000806064836000875af1915050612ffe816131c0565b6130415760405162461bcd60e51b81526020600482015260146024820152731514905394d1915497d19493d357d1905253115160621b6044820152606401610dbd565b505050505050565b60005460405163794f111b60e11b81523360048201526001600160a01b039091169063f29e22369060240160206040518083038186803b15801561308c57600080fd5b505afa1580156130a0573d6000803e3d6000fd5b505050506040513d601f19601f820116820180604052508101906130c49190613a66565b158015613166575060008054906101000a90046001600160a01b03166001600160a01b0316630c340a246040518163ffffffff1660e01b815260040160206040518083038186803b15801561311857600080fd5b505afa15801561312c573d6000803e3d6000fd5b505050506040513d601f19601f820116820180604052508101906131509190613556565b6001600160a01b0316336001600160a01b031614155b15612d175760405163075fd2b160e01b815260040160405180910390fd5b6000601282111561319457600080fd5b60006131a1836012613928565b90506131ae81600a613a23565b6131b89085613589565b949350505050565b60003d826131d257806000803e806000fd5b80602081146131ea5780156131fb5760009250613200565b816000803e60005115159250613200565b600192505b5050919050565b6001600160a01b038116811461321c57600080fd5b50565b60006020828403121561323157600080fd5b813561323c81613207565b9392505050565b634e487b7160e01b600052604160045260246000fd5b60405160c081016001600160401b038111828210171561327b5761327b613243565b60405290565b604051601f8201601f191681016001600160401b03811182821017156132a9576132a9613243565b604052919050565b80356001600160401b03811681146132c857600080fd5b919050565b801515811461321c57600080fd5b600060c082840312156132ed57600080fd5b6132f5613259565b9050613300826132b1565b815260208201356001600160801b038116811461331c57600080fd5b6020820152604082013561332f816132cd565b6040820152606082013561334281613207565b6060820152608082013561335581613207565b608082015260a082013561336881613207565b60a082015292915050565b600060c0828403121561338557600080fd5b61323c83836132db565b60008060008060008060c087890312156133a857600080fd5b86356133b381613207565b955060208701356133c381613207565b94506040870135935060608701356133da816132cd565b92506080870135915060a08701356133f181613207565b809150509295509295509295565b60008060e0838503121561341257600080fd5b61341c84846132db565b9460c0939093013593505050565b6000806000806080858703121561344057600080fd5b613449856132b1565b9350613457602086016132b1565b9250613465604086016132b1565b9150613473606086016132b1565b905092959194509250565b60006020828403121561349057600080fd5b5035919050565b6000806000606084860312156134ac57600080fd5b83356134b781613207565b95602085013595506040909401359392505050565b600080604083850312156134df57600080fd5b8235915060208301356134f181613207565b809150509250929050565b6000806040838503121561350f57600080fd5b823561351a81613207565b915060208301356134f1816132cd565b6000806040838503121561353d57600080fd5b823561354881613207565b946020939093013593505050565b60006020828403121561356857600080fd5b815161323c81613207565b634e487b7160e01b600052601160045260246000fd5b6000826135a657634e487b7160e01b600052601260045260246000fd5b500490565b6000602082840312156135bd57600080fd5b5051919050565b6000602082840312156135d657600080fd5b815160ff8116811461323c57600080fd5b6001600160a01b03998a168152978916602089015295909716604087015260608601939093526001600160801b0391909116608085015260a08401526001600160401b031660c083015260ff90921660e08201529015156101008201526101200190565b600081600019048311821515161561366557613665613573565b500290565b60006001600160401b0382111561368357613683613243565b5060051b60200190565b600082601f83011261369e57600080fd5b815160206136b36136ae8361366a565b613281565b82815260059290921b840181019181810190868411156136d257600080fd5b8286015b848110156136f65780516136e981613207565b83529183019183016136d6565b509695505050505050565b600082601f83011261371257600080fd5b815160206137226136ae8361366a565b82815260059290921b8401810191818101908684111561374157600080fd5b8286015b848110156136f65780518352918301918301613745565b60006020828403121561376e57600080fd5b81516001600160401b038082111561378557600080fd5b9083019060c0828603121561379957600080fd5b6137a1613259565b8251828111156137b057600080fd5b6137bc8782860161368d565b8252506020830151828111156137d157600080fd5b6137dd8782860161368d565b6020830152506040830151828111156137f557600080fd5b6138018782860161368d565b60408301525060608301518281111561381957600080fd5b61382587828601613701565b60608301525060808301518281111561383d57600080fd5b61384987828601613701565b60808301525060a08301518281111561386157600080fd5b61386d87828601613701565b60a08301525095945050505050565b634e487b7160e01b600052603260045260246000fd5b6001600160a01b0394851681529290931660208301526040820152606081019190915260800190565b6000806000606084860312156138d057600080fd5b8351925060208401519150604084015190509250925092565b600082198211156138fc576138fc613573565b500190565b60006001600160401b038083168181141561391e5761391e613573565b6001019392505050565b60008282101561393a5761393a613573565b500390565b600181815b8085111561397a57816000190482111561396057613960613573565b8085161561396d57918102915b93841c9390800290613944565b509250929050565b600082613991575060016107ed565b8161399e575060006107ed565b81600181146139b457600281146139be576139da565b60019150506107ed565b60ff8411156139cf576139cf613573565b50506001821b6107ed565b5060208310610133831016604e8410600b84101617156139fd575081810a6107ed565b613a07838361393f565b8060001904821115613a1b57613a1b613573565b029392505050565b600061323c8383613982565b600080600060608486031215613a4457600080fd5b8351613a4f81613207565b602085015160409095015190969495509392505050565b600060208284031215613a7857600080fd5b815161323c816132cd56fea2646970667358221220af7662cda97214092e5dfeb3a46b743e162dcd59d0413ad03af215c1430db13864736f6c63430008090033",
  "linkReferences": {
    "contracts/libraries/OpynInteractions.sol": {
      "OpynInteractions": [
        {
          "length": 20,
          "start": 2690
        },
        {
          "length": 20,
          "start": 4414
        },
        {
          "length": 20,
          "start": 5161
        },
        {
          "length": 20,
          "start": 6240
        },
        {
          "length": 20,
          "start": 6447
        },
        {
          "length": 20,
          "start": 6927
        },
        {
          "length": 20,
          "start": 7857
        },
        {
          "length": 20,
          "start": 8677
        },
        {
          "length": 20,
          "start": 11250
        },
        {
          "length": 20,
          "start": 11754
        }
      ]
    }
  },
  "deployedLinkReferences": {
    "contracts/libraries/OpynInteractions.sol": {
      "OpynInteractions": [
        {
          "length": 20,
          "start": 2040
        },
        {
          "length": 20,
          "start": 3764
        },
        {
          "length": 20,
          "start": 4511
        },
        {
          "length": 20,
          "start": 5590
        },
        {
          "length": 20,
          "start": 5797
        },
        {
          "length": 20,
          "start": 6277
        },
        {
          "length": 20,
          "start": 7207
        },
        {
          "length": 20,
          "start": 8027
        },
        {
          "length": 20,
          "start": 10600
        },
        {
          "length": 20,
          "start": 11104
        }
      ]
    }
  }
}