{
  "_format": "hh-sol-artifact-1",
  "contractName": "OptionRegistry",
  "sourceName": "contracts/OptionRegistry.sol",
  "abi": [
    {
      "inputs": [
        {
          "internalType": "address",
          "name": "_collateralAsset",
          "type": "address"
        },
        {
          "internalType": "address",
          "name": "_oTokenFactory",
          "type": "address"
        },
        {
          "internalType": "address",
          "name": "_gammaController",
          "type": "address"
        },
        {
          "internalType": "address",
          "name": "_marginPool",
          "type": "address"
        },
        {
          "internalType": "address",
          "name": "_liquidityPool",
          "type": "address"
        },
        {
          "internalType": "address",
          "name": "_addressBook",
          "type": "address"
        },
        {
          "internalType": "address",
          "name": "_authority",
          "type": "address"
        }
      ],
      "stateMutability": "nonpayable",
      "type": "constructor"
    },
    {
      "inputs": [],
      "name": "AlreadyExpired",
      "type": "error"
    },
    {
      "inputs": [],
      "name": "HealthyVault",
      "type": "error"
    },
    {
      "inputs": [],
      "name": "InsufficientBalance",
      "type": "error"
    },
    {
      "inputs": [],
      "name": "InvalidCollateral",
      "type": "error"
    },
    {
      "inputs": [],
      "name": "NoVault",
      "type": "error"
    },
    {
      "inputs": [],
      "name": "NonExistentSeries",
      "type": "error"
    },
    {
      "inputs": [],
      "name": "NotExpired",
      "type": "error"
    },
    {
      "inputs": [],
      "name": "NotKeeper",
      "type": "error"
    },
    {
      "inputs": [],
      "name": "NotLiquidityPool",
      "type": "error"
    },
    {
      "inputs": [],
      "name": "UNAUTHORIZED",
      "type": "error"
    },
    {
      "inputs": [],
      "name": "VaultNotLiquidated",
      "type": "error"
    },
    {
      "anonymous": false,
      "inputs": [
        {
          "indexed": false,
          "internalType": "contract IAuthority",
          "name": "authority",
          "type": "address"
        }
      ],
      "name": "AuthorityUpdated",
      "type": "event"
    },
    {
      "anonymous": false,
      "inputs": [
        {
          "indexed": false,
          "internalType": "address",
          "name": "token",
          "type": "address"
        }
      ],
      "name": "OptionTokenCreated",
      "type": "event"
    },
    {
      "anonymous": false,
      "inputs": [
        {
          "indexed": true,
          "internalType": "address",
          "name": "series",
          "type": "address"
        },
        {
          "indexed": false,
          "internalType": "uint256",
          "name": "vaultId",
          "type": "uint256"
        },
        {
          "indexed": false,
          "internalType": "uint256",
          "name": "closedAmount",
          "type": "uint256"
        }
      ],
      "name": "OptionsContractClosed",
      "type": "event"
    },
    {
      "anonymous": false,
      "inputs": [
        {
          "indexed": true,
          "internalType": "address",
          "name": "series",
          "type": "address"
        },
        {
          "indexed": false,
          "internalType": "uint256",
          "name": "vaultId",
          "type": "uint256"
        },
        {
          "indexed": false,
          "internalType": "uint256",
          "name": "optionsAmount",
          "type": "uint256"
        }
      ],
      "name": "OptionsContractOpened",
      "type": "event"
    },
    {
      "anonymous": false,
      "inputs": [
        {
          "indexed": true,
          "internalType": "address",
          "name": "series",
          "type": "address"
        },
        {
          "indexed": false,
          "internalType": "uint256",
          "name": "collateralReturned",
          "type": "uint256"
        },
        {
          "indexed": false,
          "internalType": "uint256",
          "name": "collateralLost",
          "type": "uint256"
        },
        {
          "indexed": false,
          "internalType": "uint256",
          "name": "amountLost",
          "type": "uint256"
        }
      ],
      "name": "OptionsContractSettled",
      "type": "event"
    },
    {
      "anonymous": false,
      "inputs": [
        {
          "indexed": false,
          "internalType": "address",
          "name": "series",
          "type": "address"
        },
        {
          "indexed": false,
          "internalType": "uint256",
          "name": "underlyingAmount",
          "type": "uint256"
        },
        {
          "indexed": false,
          "internalType": "uint256",
          "name": "strikeAmount",
          "type": "uint256"
        }
      ],
      "name": "SeriesRedeemed",
      "type": "event"
    },
    {
      "anonymous": false,
      "inputs": [
        {
          "indexed": true,
          "internalType": "address",
          "name": "series",
          "type": "address"
        },
        {
          "indexed": false,
          "internalType": "uint256",
          "name": "vaultId",
          "type": "uint256"
        },
        {
          "indexed": false,
          "internalType": "uint256",
          "name": "amountLiquidated",
          "type": "uint256"
        },
        {
          "indexed": false,
          "internalType": "uint256",
          "name": "collateralLiquidated",
          "type": "uint256"
        }
      ],
      "name": "VaultLiquidationRegistered",
      "type": "event"
    },
    {
      "inputs": [
        {
          "internalType": "uint256",
          "name": "vaultId",
          "type": "uint256"
        }
      ],
      "name": "adjustCollateral",
      "outputs": [],
      "stateMutability": "nonpayable",
      "type": "function"
    },
    {
      "inputs": [
        {
          "internalType": "uint256",
          "name": "vaultId",
          "type": "uint256"
        }
      ],
      "name": "adjustCollateralCaller",
      "outputs": [],
      "stateMutability": "nonpayable",
      "type": "function"
    },
    {
      "inputs": [],
      "name": "authority",
      "outputs": [
        {
          "internalType": "contract IAuthority",
          "name": "",
          "type": "address"
        }
      ],
      "stateMutability": "view",
      "type": "function"
    },
    {
      "inputs": [],
      "name": "callLowerHealthFactor",
      "outputs": [
        {
          "internalType": "uint64",
          "name": "",
          "type": "uint64"
        }
      ],
      "stateMutability": "view",
      "type": "function"
    },
    {
      "inputs": [],
      "name": "callUpperHealthFactor",
      "outputs": [
        {
          "internalType": "uint64",
          "name": "",
          "type": "uint64"
        }
      ],
      "stateMutability": "view",
      "type": "function"
    },
    {
      "inputs": [
        {
          "internalType": "uint256",
          "name": "vaultId",
          "type": "uint256"
        }
      ],
      "name": "checkVaultHealth",
      "outputs": [
        {
          "internalType": "bool",
          "name": "isBelowMin",
          "type": "bool"
        },
        {
          "internalType": "bool",
          "name": "isAboveMax",
          "type": "bool"
        },
        {
          "internalType": "uint256",
          "name": "healthFactor",
          "type": "uint256"
        },
        {
          "internalType": "uint256",
          "name": "upperHealthFactor",
          "type": "uint256"
        },
        {
          "internalType": "uint256",
          "name": "collatRequired",
          "type": "uint256"
        },
        {
          "internalType": "address",
          "name": "collatAsset",
          "type": "address"
        }
      ],
      "stateMutability": "view",
      "type": "function"
    },
    {
      "inputs": [
        {
          "internalType": "address",
          "name": "_series",
          "type": "address"
        },
        {
          "internalType": "uint256",
          "name": "amount",
          "type": "uint256"
        }
      ],
      "name": "close",
      "outputs": [
        {
          "internalType": "bool",
          "name": "",
          "type": "bool"
        },
        {
          "internalType": "uint256",
          "name": "",
          "type": "uint256"
        }
      ],
      "stateMutability": "nonpayable",
      "type": "function"
    },
    {
      "inputs": [],
      "name": "collateralAsset",
      "outputs": [
        {
          "internalType": "address",
          "name": "",
          "type": "address"
        }
      ],
      "stateMutability": "view",
      "type": "function"
    },
    {
      "inputs": [
        {
          "internalType": "uint256",
          "name": "strikePrice",
          "type": "uint256"
        },
        {
          "internalType": "address",
          "name": "collateral",
          "type": "address"
        }
      ],
      "name": "formatStrikePrice",
      "outputs": [
        {
          "internalType": "uint256",
          "name": "",
          "type": "uint256"
        }
      ],
      "stateMutability": "view",
      "type": "function"
    },
    {
      "inputs": [
        {
          "components": [
            {
              "internalType": "uint64",
              "name": "expiration",
              "type": "uint64"
            },
            {
              "internalType": "uint128",
              "name": "strike",
              "type": "uint128"
            },
            {
              "internalType": "bool",
              "name": "isPut",
              "type": "bool"
            },
            {
              "internalType": "address",
              "name": "underlying",
              "type": "address"
            },
            {
              "internalType": "address",
              "name": "strikeAsset",
              "type": "address"
            },
            {
              "internalType": "address",
              "name": "collateral",
              "type": "address"
            }
          ],
          "internalType": "struct Types.OptionSeries",
          "name": "series",
          "type": "tuple"
        },
        {
          "internalType": "uint256",
          "name": "amount",
          "type": "uint256"
        }
      ],
      "name": "getCollateral",
      "outputs": [
        {
          "internalType": "uint256",
          "name": "",
          "type": "uint256"
        }
      ],
      "stateMutability": "view",
      "type": "function"
    },
    {
      "inputs": [
        {
          "components": [
            {
              "internalType": "uint64",
              "name": "expiration",
              "type": "uint64"
            },
            {
              "internalType": "uint128",
              "name": "strike",
              "type": "uint128"
            },
            {
              "internalType": "bool",
              "name": "isPut",
              "type": "bool"
            },
            {
              "internalType": "address",
              "name": "underlying",
              "type": "address"
            },
            {
              "internalType": "address",
              "name": "strikeAsset",
              "type": "address"
            },
            {
              "internalType": "address",
              "name": "collateral",
              "type": "address"
            }
          ],
          "internalType": "struct Types.OptionSeries",
          "name": "_series",
          "type": "tuple"
        }
      ],
      "name": "getIssuanceHash",
      "outputs": [
        {
          "internalType": "bytes32",
          "name": "",
          "type": "bytes32"
        }
      ],
      "stateMutability": "pure",
      "type": "function"
    },
    {
      "inputs": [
        {
          "internalType": "address",
          "name": "underlying",
          "type": "address"
        },
        {
          "internalType": "address",
          "name": "strikeAsset",
          "type": "address"
        },
        {
          "internalType": "uint256",
          "name": "expiration",
          "type": "uint256"
        },
        {
          "internalType": "bool",
          "name": "isPut",
          "type": "bool"
        },
        {
          "internalType": "uint256",
          "name": "strike",
          "type": "uint256"
        },
        {
          "internalType": "address",
          "name": "collateral",
          "type": "address"
        }
      ],
      "name": "getOtoken",
      "outputs": [
        {
          "internalType": "address",
          "name": "",
          "type": "address"
        }
      ],
      "stateMutability": "view",
      "type": "function"
    },
    {
      "inputs": [
        {
          "components": [
            {
              "internalType": "uint64",
              "name": "expiration",
              "type": "uint64"
            },
            {
              "internalType": "uint128",
              "name": "strike",
              "type": "uint128"
            },
            {
              "internalType": "bool",
              "name": "isPut",
              "type": "bool"
            },
            {
              "internalType": "address",
              "name": "underlying",
              "type": "address"
            },
            {
              "internalType": "address",
              "name": "strikeAsset",
              "type": "address"
            },
            {
              "internalType": "address",
              "name": "collateral",
              "type": "address"
            }
          ],
          "internalType": "struct Types.OptionSeries",
          "name": "_series",
          "type": "tuple"
        }
      ],
      "name": "getSeries",
      "outputs": [
        {
          "internalType": "address",
          "name": "",
          "type": "address"
        }
      ],
      "stateMutability": "view",
      "type": "function"
    },
    {
      "inputs": [
        {
          "internalType": "bytes32",
          "name": "issuanceHash",
          "type": "bytes32"
        }
      ],
      "name": "getSeriesAddress",
      "outputs": [
        {
          "internalType": "address",
          "name": "",
          "type": "address"
        }
      ],
      "stateMutability": "view",
      "type": "function"
    },
    {
      "inputs": [
        {
          "internalType": "address",
          "name": "series",
          "type": "address"
        }
      ],
      "name": "getSeriesInfo",
      "outputs": [
        {
          "components": [
            {
              "internalType": "uint64",
              "name": "expiration",
              "type": "uint64"
            },
            {
              "internalType": "uint128",
              "name": "strike",
              "type": "uint128"
            },
            {
              "internalType": "bool",
              "name": "isPut",
              "type": "bool"
            },
            {
              "internalType": "address",
              "name": "underlying",
              "type": "address"
            },
            {
              "internalType": "address",
              "name": "strikeAsset",
              "type": "address"
            },
            {
              "internalType": "address",
              "name": "collateral",
              "type": "address"
            }
          ],
          "internalType": "struct Types.OptionSeries",
          "name": "",
          "type": "tuple"
        }
      ],
      "stateMutability": "view",
      "type": "function"
    },
    {
      "inputs": [
        {
          "components": [
            {
              "internalType": "uint64",
              "name": "expiration",
              "type": "uint64"
            },
            {
              "internalType": "uint128",
              "name": "strike",
              "type": "uint128"
            },
            {
              "internalType": "bool",
              "name": "isPut",
              "type": "bool"
            },
            {
              "internalType": "address",
              "name": "underlying",
              "type": "address"
            },
            {
              "internalType": "address",
              "name": "strikeAsset",
              "type": "address"
            },
            {
              "internalType": "address",
              "name": "collateral",
              "type": "address"
            }
          ],
          "internalType": "struct Types.OptionSeries",
          "name": "optionSeries",
          "type": "tuple"
        }
      ],
      "name": "issue",
      "outputs": [
        {
          "internalType": "address",
          "name": "",
          "type": "address"
        }
      ],
      "stateMutability": "nonpayable",
      "type": "function"
    },
    {
      "inputs": [
        {
          "internalType": "address",
          "name": "",
          "type": "address"
        }
      ],
      "name": "keeper",
      "outputs": [
        {
          "internalType": "bool",
          "name": "",
          "type": "bool"
        }
      ],
      "stateMutability": "view",
      "type": "function"
    },
    {
      "inputs": [
        {
          "internalType": "address",
          "name": "_series",
          "type": "address"
        },
        {
          "internalType": "uint256",
          "name": "amount",
          "type": "uint256"
        },
        {
          "internalType": "uint256",
          "name": "collateralAmount",
          "type": "uint256"
        }
      ],
      "name": "open",
      "outputs": [
        {
          "internalType": "bool",
          "name": "",
          "type": "bool"
        },
        {
          "internalType": "uint256",
          "name": "",
          "type": "uint256"
        }
      ],
      "stateMutability": "nonpayable",
      "type": "function"
    },
    {
      "inputs": [],
      "name": "putLowerHealthFactor",
      "outputs": [
        {
          "internalType": "uint64",
          "name": "",
          "type": "uint64"
        }
      ],
      "stateMutability": "view",
      "type": "function"
    },
    {
      "inputs": [],
      "name": "putUpperHealthFactor",
      "outputs": [
        {
          "internalType": "uint64",
          "name": "",
          "type": "uint64"
        }
      ],
      "stateMutability": "view",
      "type": "function"
    },
    {
      "inputs": [
        {
          "internalType": "address",
          "name": "_series",
          "type": "address"
        }
      ],
      "name": "redeem",
      "outputs": [
        {
          "internalType": "uint256",
          "name": "",
          "type": "uint256"
        }
      ],
      "stateMutability": "nonpayable",
      "type": "function"
    },
    {
      "inputs": [
        {
          "internalType": "uint256",
          "name": "vaultId",
          "type": "uint256"
        }
      ],
      "name": "registerLiquidatedVault",
      "outputs": [],
      "stateMutability": "nonpayable",
      "type": "function"
    },
    {
      "inputs": [
        {
          "internalType": "address",
          "name": "",
          "type": "address"
        }
      ],
      "name": "seriesInfo",
      "outputs": [
        {
          "internalType": "uint64",
          "name": "expiration",
          "type": "uint64"
        },
        {
          "internalType": "uint128",
          "name": "strike",
          "type": "uint128"
        },
        {
          "internalType": "bool",
          "name": "isPut",
          "type": "bool"
        },
        {
          "internalType": "address",
          "name": "underlying",
          "type": "address"
        },
        {
          "internalType": "address",
          "name": "strikeAsset",
          "type": "address"
        },
        {
          "internalType": "address",
          "name": "collateral",
          "type": "address"
        }
      ],
      "stateMutability": "view",
      "type": "function"
    },
    {
      "inputs": [
        {
          "internalType": "contract IAuthority",
          "name": "_newAuthority",
          "type": "address"
        }
      ],
      "name": "setAuthority",
      "outputs": [],
      "stateMutability": "nonpayable",
      "type": "function"
    },
    {
      "inputs": [
        {
          "internalType": "uint64",
          "name": "_putLower",
          "type": "uint64"
        },
        {
          "internalType": "uint64",
          "name": "_putUpper",
          "type": "uint64"
        },
        {
          "internalType": "uint64",
          "name": "_callLower",
          "type": "uint64"
        },
        {
          "internalType": "uint64",
          "name": "_callUpper",
          "type": "uint64"
        }
      ],
      "name": "setHealthThresholds",
      "outputs": [],
      "stateMutability": "nonpayable",
      "type": "function"
    },
    {
      "inputs": [
        {
          "internalType": "address",
          "name": "_target",
          "type": "address"
        },
        {
          "internalType": "bool",
          "name": "_auth",
          "type": "bool"
        }
      ],
      "name": "setKeeper",
      "outputs": [],
      "stateMutability": "nonpayable",
      "type": "function"
    },
    {
      "inputs": [
        {
          "internalType": "address",
          "name": "_newLiquidityPool",
          "type": "address"
        }
      ],
      "name": "setLiquidityPool",
      "outputs": [],
      "stateMutability": "nonpayable",
      "type": "function"
    },
    {
      "inputs": [
        {
          "internalType": "address",
          "name": "_series",
          "type": "address"
        }
      ],
      "name": "settle",
      "outputs": [
        {
          "internalType": "bool",
          "name": "",
          "type": "bool"
        },
        {
          "internalType": "uint256",
          "name": "",
          "type": "uint256"
        },
        {
          "internalType": "uint256",
          "name": "",
          "type": "uint256"
        },
        {
          "internalType": "uint256",
          "name": "",
          "type": "uint256"
        }
      ],
      "stateMutability": "nonpayable",
      "type": "function"
    },
    {
      "inputs": [],
      "name": "vaultCount",
      "outputs": [
        {
          "internalType": "uint64",
          "name": "",
          "type": "uint64"
        }
      ],
      "stateMutability": "view",
      "type": "function"
    },
    {
      "inputs": [
        {
          "internalType": "address",
          "name": "",
          "type": "address"
        }
      ],
      "name": "vaultIds",
      "outputs": [
        {
          "internalType": "uint256",
          "name": "",
          "type": "uint256"
        }
      ],
      "stateMutability": "view",
      "type": "function"
    },
    {
      "inputs": [
        {
          "internalType": "uint256",
          "name": "vaultId",
          "type": "uint256"
        }
      ],
      "name": "wCollatLiquidatedVault",
      "outputs": [],
      "stateMutability": "nonpayable",
      "type": "function"
    }
  ],
  "bytecode": "0x610120604052792af80000000000002ee00000000000002af800000000000032c86005553480156200003057600080fd5b5060405162003ce538038062003ce5833981016040819052620000539162000116565b600080546001600160a01b0319166001600160a01b03831690811790915560405190815281907f2f658b440c35314f52658ea8a740e05b284cdc84dc9ae01e891f21b8933e7cad9060200160405180910390a150506001600160a01b0395861660c05293851660805291841660a052831661010052600480549184166801000000000000000002600160401b600160e01b03199092169190911790551660e052620001ab565b80516001600160a01b03811681146200011157600080fd5b919050565b600080600080600080600060e0888a0312156200013257600080fd5b6200013d88620000f9565b96506200014d60208901620000f9565b95506200015d60408901620000f9565b94506200016d60608901620000f9565b93506200017d60808901620000f9565b92506200018d60a08901620000f9565b91506200019d60c08901620000f9565b905092959891949750929550565b60805160a05160c05160e05161010051613a62620002836000396000818161154201528181611b8201528181611ecb01526128d401526000818161089e01528181610967015281816120e801526121ab015260008181610422015281816114030152612825015260008181610c6901528181610e770152818161151a01528181611670015281816117f901528181611a5801528181611b5a01528181611ea301528181611fad015281816125e90152818161275b015281816128ac0152612b290152600081816107bb01526110dc0152613a626000f3fe608060405234801561001057600080fd5b50600436106101e55760003560e01c806395a2251f1161010f578063c7bc163b116100a2578063dfeddb7e11610071578063dfeddb7e146106a1578063e341c12c146106ca578063e49280cb146106dd578063e8cf8608146106f057600080fd5b8063c7bc163b14610484578063c84feaca14610541578063d1b9e8531461055b578063dac9675b1461056e57600080fd5b8063aabaecd6116100de578063aabaecd61461041d578063b0b96a3514610444578063b94020791461045e578063bf7e214f1461047157600080fd5b806395a2251f146103995780639b8c8dc2146103ac578063a3895ce6146103f7578063a7c6a1001461040a57600080fd5b80634c9a1c61116101875780637a9e5e4b116101565780637a9e5e4b1461032f57806389a86ad31461034257806389f928711461036c5780638cbb65111461038657600080fd5b80634c9a1c61146102c15780635fb708cf146102d457806363009ac3146102e75780636a256b29146102fa57600080fd5b8063210fc56a116101c3578063210fc56a146102505780632e79bf421461027b57806332c926cb1461028e57806341849afc146102a157600080fd5b806301877020146101ea578063164e6ea9146101ff5780631c1997591461022f575b600080fd5b6101fd6101f83660046131c8565b610723565b005b600554610212906001600160401b031681565b6040516001600160401b0390911681526020015b60405180910390f35b61024261023d36600461331c565b61075c565b604051908152602001610226565b61026361025e366004613338565b61079c565b6040516001600160a01b039091168152602001610226565b6102426102893660046133a8565b610899565b6101fd61029c3660046133d3565b610bc5565b6102426102af3660046131c8565b60026020526000908152604090205481565b6101fd6102cf366004613427565b610c42565b6102636102e236600461331c565b611023565b6101fd6102f5366004613427565b6113d6565b61030d6103083660046131c8565b6116f4565b6040805194151585526020850193909352918301526060820152608001610226565b6101fd61033d3660046131c8565b611923565b610355610350366004613440565b61197f565b604080519215158352602083019190915201610226565b60055461021290600160401b90046001600160401b031681565b61026361039436600461331c565b611cba565b6102426103a73660046131c8565b611d18565b6103bf6103ba366004613427565b611f7a565b604080519615158752941515602087015293850192909252606084015260808301526001600160a01b031660a082015260c001610226565b610242610405366004613475565b6124e1565b600454610212906001600160401b031681565b6102637f000000000000000000000000000000000000000000000000000000000000000081565b60055461021290600160c01b90046001600160401b031681565b6101fd61046c366004613427565b6125b6565b600054610263906001600160a01b031681565b6104f06104923660046131c8565b600160208190526000918252604090912080549181015460028201546003909201546001600160401b03841693600160401b81046001600160801b031693600160c01b90910460ff16926001600160a01b0390811692918116911686565b604080516001600160401b0390971687526001600160801b039095166020870152921515938501939093526001600160a01b03908116606085015291821660808401521660a082015260c001610226565b60055461021290600160801b90046001600160401b031681565b6101fd6105693660046134a5565b6127c7565b61063561057c3660046131c8565b6040805160c081018252600080825260208201819052918101829052606081018290526080810182905260a0810191909152506001600160a01b03908116600090815260016020818152604092839020835160c08101855281546001600160401b0381168252600160401b81046001600160801b031693820193909352600160c01b90920460ff16151593820193909352908201548316606082015260028201548316608082015260039091015490911660a082015290565b604051610226919081516001600160401b031681526020808301516001600160801b0316908201526040808301511515908201526060808301516001600160a01b039081169183019190915260808084015182169083015260a092830151169181019190915260c00190565b6102636106af366004613427565b6000908152600360205260409020546001600160a01b031690565b6101fd6106d8366004613427565b6127fa565b6103556106eb3660046134d3565b61295a565b6107136106fe3660046131c8565b60066020526000908152604090205460ff1681565b6040519015158152602001610226565b61072b612c0b565b600480546001600160a01b03909216600160401b0268010000000000000000600160e01b0319909216919091179055565b6000610796826060015183608001518460a0015185600001516001600160401b0316866040015187602001516001600160801b0316612cc2565b92915050565b60008073__$a949af228b7bd2e36efc48dbaaf0130ade$__63f7b98e1b7f0000000000000000000000000000000000000000000000000000000000000000858b8b6107e78a8a6124e1565b60405160e087901b6001600160e01b03191681526001600160a01b039586166004820152938516602485015291841660448401529092166064820152608481019190915260a4810189905287151560c482015260e40160206040518083038186803b15801561085557600080fd5b505af4158015610869573d6000803e3d6000fd5b505050506040513d601f19601f8201168201806040525081019061088d91906134ff565b98975050505050505050565b6000807f00000000000000000000000000000000000000000000000000000000000000006001600160a01b031663cf28493f6040518163ffffffff1660e01b815260040160206040518083038186803b1580156108f557600080fd5b505afa158015610909573d6000803e3d6000fd5b505050506040513d601f19601f8201168201806040525081019061092d91906134ff565b90506000816001600160a01b0316630b0509fb866060015187608001518860a001516402540be400896109609190613532565b8a602001517f00000000000000000000000000000000000000000000000000000000000000006001600160a01b031663833b1fce6040518163ffffffff1660e01b815260040160206040518083038186803b1580156109be57600080fd5b505afa1580156109d2573d6000803e3d6000fd5b505050506040513d601f19601f820116820180604052508101906109f691906134ff565b60608d01516040516341976e0960e01b81526001600160a01b0391821660048201529116906341976e099060240160206040518083038186803b158015610a3c57600080fd5b505afa158015610a50573d6000803e3d6000fd5b505050506040513d601f19601f82011682018060405250810190610a749190613554565b8c600001518d60a001516001600160a01b031663313ce5676040518163ffffffff1660e01b815260040160206040518083038186803b158015610ab657600080fd5b505afa158015610aca573d6000803e3d6000fd5b505050506040513d601f19601f82011682018060405250810190610aee919061356d565b8e604001516040518a63ffffffff1660e01b8152600401610b1799989796959493929190613590565b60206040518083038186803b158015610b2f57600080fd5b505afa158015610b43573d6000803e3d6000fd5b505050506040513d601f19601f82011682018060405250810190610b679190613554565b905060008560400151610b85576005546001600160401b0316610b99565b600554600160801b90046001600160401b03165b6001600160401b03169050612710610bb182846135f4565b610bbb9190613532565b9695505050505050565b610bcd612c0b565b600580546001600160801b0316600160c01b6001600160401b039687160267ffffffffffffffff60801b191617600160801b94861694909402939093176fffffffffffffffffffffffffffffffff1916600160401b9285169290920267ffffffffffffffff1916919091179216919091179055565b610c4a612d33565b60405163d99d13f560e01b8152306004820152602481018290526000907f00000000000000000000000000000000000000000000000000000000000000006001600160a01b03169063d99d13f59060440160006040518083038186803b158015610cb357600080fd5b505afa158015610cc7573d6000803e3d6000fd5b505050506040513d6000823e601f3d908101601f19168201604052610cef9190810190613705565b90508060600151600081518110610d0857610d08613825565b6020026020010151600014610d6f5760405162461bcd60e51b815260206004820152602260248201527f5661756c74206861732073686f727420706f736974696f6e73205b616d6f756e604482015261745d60f01b60648201526084015b60405180910390fd5b80518051600091908290610d8557610d85613825565b60200260200101516001600160a01b031614610ded5760405162461bcd60e51b815260206004820152602160248201527f5661756c74206861732073686f727420706f736974696f6e73205b746f6b656e6044820152605d60f81b6064820152608401610d66565b60008160a00151600081518110610e0657610e06613825565b602002602001015111610e5b5760405162461bcd60e51b815260206004820152601760248201527f5661756c7420686173206e6f20636f6c6c61746572616c0000000000000000006044820152606401610d66565b73__$a949af228b7bd2e36efc48dbaaf0130ade$__63fd5b6dd57f00000000000000000000000000000000000000000000000000000000000000008360400151600081518110610ead57610ead613825565b60200260200101518460a00151600081518110610ecc57610ecc613825565b6020026020010151866040518563ffffffff1660e01b8152600401610ef4949392919061383b565b60006040518083038186803b158015610f0c57600080fd5b505af4158015610f20573d6000803e3d6000fd5b50505050600460089054906101000a90046001600160a01b03166001600160a01b0316631e4bc5578260a00151600081518110610f5f57610f5f613825565b602002602001015160016040518363ffffffff1660e01b8152600401610f919291909182521515602082015260400190565b600060405180830381600087803b158015610fab57600080fd5b505af1158015610fbf573d6000803e3d6000fd5b5050505061101f8160400151600081518110610fdd57610fdd613825565b6020026020010151600460089054906101000a90046001600160a01b03168360a0015160008151811061101257611012613825565b6020026020010151612ea7565b5050565b600061102d612f26565b4282600001516001600160401b03161161105a5760405163506b27c560e11b815260040160405180910390fd5b600061107783602001516001600160801b03168460a001516124e1565b905060006110af846060015185608001518660a0015187600001516001600160401b03168860400151876001600160801b0316612cc2565b60a08501516060860151608087015187516040808a01519051630e4e99e360e01b81526001600160a01b037f000000000000000000000000000000000000000000000000000000000000000081166004830152958616602482015293851660448501529390911660648301526001600160801b03861660848301526001600160401b031660a482015290151560c482015290915060009073__$a949af228b7bd2e36efc48dbaaf0130ade$__90630e4e99e39060e40160206040518083038186803b15801561117d57600080fd5b505af4158015611191573d6000803e3d6000fd5b505050506040513d601f19601f820116820180604052508101906111b591906134ff565b90506040518060c0016040528086600001516001600160401b03168152602001846001600160801b0316815260200186604001511515815260200186606001516001600160a01b0316815260200186608001516001600160a01b031681526020018660a001516001600160a01b031681525060016000836001600160a01b03166001600160a01b0316815260200190815260200160002060008201518160000160006101000a8154816001600160401b0302191690836001600160401b0316021790555060208201518160000160086101000a8154816001600160801b0302191690836001600160801b0316021790555060408201518160000160186101000a81548160ff02191690831515021790555060608201518160010160006101000a8154816001600160a01b0302191690836001600160a01b0316021790555060808201518160020160006101000a8154816001600160a01b0302191690836001600160a01b0316021790555060a08201518160030160006101000a8154816001600160a01b0302191690836001600160a01b03160217905550905050806003600084815260200190815260200160002060006101000a8154816001600160a01b0302191690836001600160a01b031602179055507ff434a81a703b3b06f1dd290881e157c47d663389196c88db9f57819ec6f6ae9f816040516113c691906001600160a01b0391909116815260200190565b60405180910390a1949350505050565b6113de612d33565b6000806000806113ed85611f7a565b95509550505093509350806001600160a01b03167f00000000000000000000000000000000000000000000000000000000000000006001600160a01b031614611449576040516368f7a67560e11b815260040160405180910390fd5b83158015611455575082155b15611473576040516315fe9b6160e21b815260040160405180910390fd5b83156115d15760048054604051631e4bc55760e01b815291820184905260006024830152600160401b90046001600160a01b031690631e4bc55790604401600060405180830381600087803b1580156114cb57600080fd5b505af11580156114df573d6000803e3d6000fd5b50506004546115039250839150600160401b90046001600160a01b03163085612f58565b6040516347e200ad60e11b81526001600160a01b037f0000000000000000000000000000000000000000000000000000000000000000811660048301527f00000000000000000000000000000000000000000000000000000000000000008116602483015282166044820152606481018390526084810186905273__$a949af228b7bd2e36efc48dbaaf0130ade$__90638fc4015a9060a40160006040518083038186803b1580156115b457600080fd5b505af41580156115c8573d6000803e3d6000fd5b505050506116ed565b82156116ed5760048054604051631e4bc55760e01b815291820184905260016024830152600160401b90046001600160a01b031690631e4bc55790604401600060405180830381600087803b15801561162957600080fd5b505af115801561163d573d6000803e3d6000fd5b505060405163fd5b6dd560e01b815273__$a949af228b7bd2e36efc48dbaaf0130ade$__925063fd5b6dd5915061169e907f000000000000000000000000000000000000000000000000000000000000000090859087908b9060040161383b565b60006040518083038186803b1580156116b657600080fd5b505af41580156116ca573d6000803e3d6000fd5b50506004546116ed9250839150600160401b90046001600160a01b031684612ea7565b5050505050565b600080600080611702612f26565b6001600160a01b03858116600090815260016020818152604092839020835160c08101855281546001600160401b038116808352600160401b82046001600160801b031694830194909452600160c01b900460ff16151594810194909452918201548416606084015260028201548416608084015260039091015490921660a0820152906117a35760405163117af06360e31b815260040160405180910390fd5b4281600001516001600160401b0316106117d05760405163d0404f8560e01b815260040160405180910390fd5b6001600160a01b038681166000908152600260205260408082205490516315afd40960e01b81527f0000000000000000000000000000000000000000000000000000000000000000909316600484015260248301819052918190819073__$a949af228b7bd2e36efc48dbaaf0130ade$__906315afd4099060440160606040518083038186803b15801561186357600080fd5b505af4158015611877573d6000803e3d6000fd5b505050506040513d601f19601f8201168201806040525081019061189b9190613864565b9250925092506118c58560a00151600460089054906101000a90046001600160a01b031685612ea7565b60408051848152602081018490529081018290526001600160a01b038b16907ffd7eb2273d5660864e5ad7b3a1afd8ff16166a5c5fb2fe03c29f9fdbdc8930d49060600160405180910390a260019a92995090975095509350505050565b61192b612c0b565b600080546001600160a01b0319166001600160a01b0383169081179091556040519081527f2f658b440c35314f52658ea8a740e05b284cdc84dc9ae01e891f21b8933e7cad9060200160405180910390a150565b60008061198a612f26565b6001600160a01b03858116600090815260016020818152604092839020835160c08101855281546001600160401b038116808352600160401b82046001600160801b031694830194909452600160c01b900460ff16151594810194909452918201548416606084015260028201548416608084015260039091015490921660a0820152904210611a2d5760405163506b27c560e11b815260040160405180910390fd5b611a3d8160a00151333087612f58565b6001600160a01b0386166000908152600260205260409020547f00000000000000000000000000000000000000000000000000000000000000009080611b4357604051636553690d60e11b81523060048201526001600160a01b0383169063caa6d21a9060240160206040518083038186803b158015611abc57600080fd5b505afa158015611ad0573d6000803e3d6000fd5b505050506040513d601f19601f82011682018060405250810190611af49190613554565b611aff906001613892565b600480549192506001600160401b03909116906000611b1d836138aa565b91906101000a8154816001600160401b0302191690836001600160401b03160217905550505b604051633718f97560e01b81526001600160a01b037f0000000000000000000000000000000000000000000000000000000000000000811660048301527f00000000000000000000000000000000000000000000000000000000000000008116602483015289166044820152606481018790526084810182905260a48101889052600160c482015260009073__$a949af228b7bd2e36efc48dbaaf0130ade$__90633718f9759060e40160206040518083038186803b158015611c0557600080fd5b505af4158015611c19573d6000803e3d6000fd5b505050506040513d601f19601f82011682018060405250810190611c3d9190613554565b60408051848152602081018390529192506001600160a01b038b16917f242b1ddd06a984a28045d1a261fcddca274c5f29be7c894def55d7b938d4c7ce910160405180910390a2611c8f893383612ea7565b506001600160a01b038816600090815260026020526040902055506001925083915050935093915050565b600060036000611cf8846060015185608001518660a0015187600001516001600160401b0316886040015189602001516001600160801b0316612cc2565b81526020810191909152604001600020546001600160a01b031692915050565b6001600160a01b038181166000908152600160208181526040808420815160c08101835281546001600160401b038116808352600160401b82046001600160801b031695830195909552600160c01b900460ff16151592810192909252928301548516606082015260028301548516608082015260039092015490931660a08201529091611db95760405163117af06360e31b815260040160405180910390fd5b4281600001516001600160401b031610611de65760405163d0404f8560e01b815260040160405180910390fd5b6040516370a0823160e01b81523360048201526000906001600160a01b038516906370a082319060240160206040518083038186803b158015611e2857600080fd5b505afa158015611e3c573d6000803e3d6000fd5b505050506040513d601f19601f82011682018060405250810190611e609190613554565b905080611e8057604051631e9acf1760e31b815260040160405180910390fd5b611e8c84333084612f58565b6040516302e80dad60e61b81526001600160a01b037f0000000000000000000000000000000000000000000000000000000000000000811660048301527f000000000000000000000000000000000000000000000000000000000000000081166024830152851660448201526064810182905260009073__$a949af228b7bd2e36efc48dbaaf0130ade$__9063ba036b409060840160206040518083038186803b158015611f3957600080fd5b505af4158015611f4d573d6000803e3d6000fd5b505050506040513d601f19601f82011682018060405250810190611f719190613554565b95945050505050565b60405163d99d13f560e01b8152306004820152602481018290526000908190819081908190819081906001600160a01b037f0000000000000000000000000000000000000000000000000000000000000000169063d99d13f59060440160006040518083038186803b158015611fef57600080fd5b505afa158015612003573d6000803e3d6000fd5b505050506040513d6000823e601f3d908101601f1916820160405261202b9190810190613705565b9050600060016000836000015160008151811061204a5761204a613825565b6020908102919091018101516001600160a01b0390811683528282019390935260409182016000908120835160c08101855281546001600160401b0381168252600160401b81046001600160801b031682860152600160c01b900460ff16151581860152600182015486166060820152600282015486166080820152600390910154851660a0820152835163cf28493f60e01b8152935190955090937f0000000000000000000000000000000000000000000000000000000000000000169263cf28493f926004808301939192829003018186803b15801561212b57600080fd5b505afa15801561213f573d6000803e3d6000fd5b505050506040513d601f19601f8201168201806040525081019061216391906134ff565b90506000816001600160a01b0316630b0509fb846060015185608001518660a00151886060015160008151811061219c5761219c613825565b602002602001015188602001517f00000000000000000000000000000000000000000000000000000000000000006001600160a01b031663833b1fce6040518163ffffffff1660e01b815260040160206040518083038186803b15801561220257600080fd5b505afa158015612216573d6000803e3d6000fd5b505050506040513d601f19601f8201168201806040525081019061223a91906134ff565b60608b01516040516341976e0960e01b81526001600160a01b0391821660048201529116906341976e099060240160206040518083038186803b15801561228057600080fd5b505afa158015612294573d6000803e3d6000fd5b505050506040513d601f19601f820116820180604052508101906122b89190613554565b8a600001518b60a001516001600160a01b031663313ce5676040518163ffffffff1660e01b815260040160206040518083038186803b1580156122fa57600080fd5b505afa15801561230e573d6000803e3d6000fd5b505050506040513d601f19601f82011682018060405250810190612332919061356d565b8c604001516040518a63ffffffff1660e01b815260040161235b99989796959493929190613590565b60206040518083038186803b15801561237357600080fd5b505afa158015612387573d6000803e3d6000fd5b505050506040513d601f19601f820116820180604052508101906123ab9190613554565b905060008460a001516000815181106123c6576123c6613825565b6020026020010151905081612710826123df91906135f4565b6123e99190613532565b98508360400151612405576005546001600160401b0316612419565b600554600160801b90046001600160401b03165b6001600160401b031697506000846040015161244757600554600160401b90046001600160401b031661245b565b600554600160c01b90046001600160401b03165b6001600160401b03169050888a111561249a5760019a5061271061247f8a856135f4565b6124899190613532565b61249390836138d1565b97506124cb565b808a10156124cb5760019b50816127106124b48b866135f4565b6124be9190613532565b6124c891906138d1565b97505b8460a00151965050505050505091939550919395565b6000806124f36402540be40085613532565b90506000836001600160a01b031663313ce5676040518163ffffffff1660e01b815260040160206040518083038186803b15801561253057600080fd5b505afa158015612544573d6000803e3d6000fd5b505050506040513d601f19601f82011682018060405250810190612568919061356d565b60ff1690506008811061257d57509050610796565b600061258a8260086138d1565b905061259781600a6139cc565b6125a282600a6139cc565b6125ac9085613532565b610bbb91906135f4565b6125be612d33565b60405163f62fc0b360e01b815230600482015260248101829052600090819081906001600160a01b037f0000000000000000000000000000000000000000000000000000000000000000169063f62fc0b39060440160606040518083038186803b15801561262b57600080fd5b505afa15801561263f573d6000803e3d6000fd5b505050506040513d601f19601f8201168201806040525081019061266391906139d8565b919450925090506001600160a01b0383166126915760405163df66968160e01b815260040160405180910390fd5b60408051858152602081018490529081018290526001600160a01b038416907f47aa675faf14c5e3b5da8d235f13812988463fbe9e8d3da67741f8c068e8132d9060600160405180910390a260048054604051631e4bc55760e01b815291820183905260016024830152600160401b90046001600160a01b031690631e4bc55790604401600060405180830381600087803b15801561272f57600080fd5b505af1158015612743573d6000803e3d6000fd5b5050604051630fb0af3f60e31b8152600481018790527f00000000000000000000000000000000000000000000000000000000000000006001600160a01b03169250637d8579f89150602401600060405180830381600087803b1580156127a957600080fd5b505af11580156127bd573d6000803e3d6000fd5b5050505050505050565b6127cf612c0b565b6001600160a01b03919091166000908152600660205260409020805460ff1916911515919091179055565b612802612ff2565b600080600061281084611f7a565b955095505050509250806001600160a01b03167f00000000000000000000000000000000000000000000000000000000000000006001600160a01b03161461286b576040516368f7a67560e11b815260040160405180910390fd5b82612889576040516315fe9b6160e21b815260040160405180910390fd5b61289581333085612f58565b6040516347e200ad60e11b81526001600160a01b037f0000000000000000000000000000000000000000000000000000000000000000811660048301527f00000000000000000000000000000000000000000000000000000000000000008116602483015282166044820152606481018390526084810185905273__$a949af228b7bd2e36efc48dbaaf0130ade$__90638fc4015a9060a40160006040518083038186803b15801561294657600080fd5b505af41580156127bd573d6000803e3d6000fd5b600080612965612f26565b6001600160a01b03848116600090815260016020818152604092839020835160c08101855281546001600160401b038116808352600160401b82046001600160801b031694830194909452600160c01b900460ff16151594810194909452918201548416606084015260028201548416608084015260039091015490921660a082015290612a065760405163117af06360e31b815260040160405180910390fd5b4281600001516001600160401b031611612a335760405163506b27c560e11b815260040160405180910390fd5b6001600160a01b03851660009081526002602052604090205480612a6a5760405163a1b86ccf60e01b815260040160405180910390fd5b6000612ae986886001600160a01b031663313ce5676040518163ffffffff1660e01b815260040160206040518083038186803b158015612aa957600080fd5b505afa158015612abd573d6000803e3d6000fd5b505050506040513d601f19601f82011682018060405250810190612ae1919061356d565b60ff1661312d565b9050612af787333084612f58565b604051633f83640160e21b815260009073__$a949af228b7bd2e36efc48dbaaf0130ade$__9063fe0d900490612b57907f0000000000000000000000000000000000000000000000000000000000000000908c908790899060040161383b565b60206040518083038186803b158015612b6f57600080fd5b505af4158015612b83573d6000803e3d6000fd5b505050506040513d601f19601f82011682018060405250810190612ba79190613554565b9050612bb88460a001513383612ea7565b60408051848152602081018490526001600160a01b038a16917f8b307ec2cdec0ea71518d1d82e315a365c5789f3e02e4466b9d886b3474b1793910160405180910390a260019890975095505050505050565b60008054906101000a90046001600160a01b03166001600160a01b0316630c340a246040518163ffffffff1660e01b815260040160206040518083038186803b158015612c5757600080fd5b505afa158015612c6b573d6000803e3d6000fd5b505050506040513d601f19601f82011682018060405250810190612c8f91906134ff565b6001600160a01b0316336001600160a01b031614612cc05760405163075fd2b160e01b815260040160405180910390fd5b565b6040516bffffffffffffffffffffffff19606088811b8216602084015287811b8216603484015286901b166048820152605c810184905282151560f81b607c820152607d8101829052600090609d016040516020818303038152906040528051906020012090509695505050505050565b3360009081526006602052604090205460ff16158015612de8575060008054906101000a90046001600160a01b03166001600160a01b0316630c340a246040518163ffffffff1660e01b815260040160206040518083038186803b158015612d9a57600080fd5b505afa158015612dae573d6000803e3d6000fd5b505050506040513d601f19601f82011682018060405250810190612dd291906134ff565b6001600160a01b0316336001600160a01b031614155b8015612e89575060008054906101000a90046001600160a01b03166001600160a01b031663481c6a756040518163ffffffff1660e01b815260040160206040518083038186803b158015612e3b57600080fd5b505afa158015612e4f573d6000803e3d6000fd5b505050506040513d601f19601f82011682018060405250810190612e7391906134ff565b6001600160a01b0316336001600160a01b031614155b15612cc057604051631ea2564f60e31b815260040160405180910390fd5b600060405163a9059cbb60e01b81526001600160a01b03841660048201528260248201526000806044836000895af1915050612ee281613169565b612f205760405162461bcd60e51b815260206004820152600f60248201526e1514905394d1915497d19052531151608a1b6044820152606401610d66565b50505050565b600454600160401b90046001600160a01b03163314612cc05760405163f539349760e01b815260040160405180910390fd5b600084905060006040516323b872dd60e01b81526001600160a01b03861660048201526001600160a01b03851660248201528360448201526000806064836000875af1915050612fa781613169565b612fea5760405162461bcd60e51b81526020600482015260146024820152731514905394d1915497d19493d357d1905253115160621b6044820152606401610d66565b505050505050565b60005460405163794f111b60e11b81523360048201526001600160a01b039091169063f29e22369060240160206040518083038186803b15801561303557600080fd5b505afa158015613049573d6000803e3d6000fd5b505050506040513d601f19601f8201168201806040525081019061306d9190613a0f565b15801561310f575060008054906101000a90046001600160a01b03166001600160a01b0316630c340a246040518163ffffffff1660e01b815260040160206040518083038186803b1580156130c157600080fd5b505afa1580156130d5573d6000803e3d6000fd5b505050506040513d601f19601f820116820180604052508101906130f991906134ff565b6001600160a01b0316336001600160a01b031614155b15612cc05760405163075fd2b160e01b815260040160405180910390fd5b6000601282111561313d57600080fd5b600061314a8360126138d1565b905061315781600a6139cc565b6131619085613532565b949350505050565b60003d8261317b57806000803e806000fd5b80602081146131935780156131a457600092506131a9565b816000803e600051151592506131a9565b600192505b5050919050565b6001600160a01b03811681146131c557600080fd5b50565b6000602082840312156131da57600080fd5b81356131e5816131b0565b9392505050565b634e487b7160e01b600052604160045260246000fd5b60405160c081016001600160401b0381118282101715613224576132246131ec565b60405290565b604051601f8201601f191681016001600160401b0381118282101715613252576132526131ec565b604052919050565b80356001600160401b038116811461327157600080fd5b919050565b80151581146131c557600080fd5b600060c0828403121561329657600080fd5b61329e613202565b90506132a98261325a565b815260208201356001600160801b03811681146132c557600080fd5b602082015260408201356132d881613276565b604082015260608201356132eb816131b0565b606082015260808201356132fe816131b0565b608082015260a0820135613311816131b0565b60a082015292915050565b600060c0828403121561332e57600080fd5b6131e58383613284565b60008060008060008060c0878903121561335157600080fd5b863561335c816131b0565b9550602087013561336c816131b0565b945060408701359350606087013561338381613276565b92506080870135915060a087013561339a816131b0565b809150509295509295509295565b60008060e083850312156133bb57600080fd5b6133c58484613284565b9460c0939093013593505050565b600080600080608085870312156133e957600080fd5b6133f28561325a565b93506134006020860161325a565b925061340e6040860161325a565b915061341c6060860161325a565b905092959194509250565b60006020828403121561343957600080fd5b5035919050565b60008060006060848603121561345557600080fd5b8335613460816131b0565b95602085013595506040909401359392505050565b6000806040838503121561348857600080fd5b82359150602083013561349a816131b0565b809150509250929050565b600080604083850312156134b857600080fd5b82356134c3816131b0565b9150602083013561349a81613276565b600080604083850312156134e657600080fd5b82356134f1816131b0565b946020939093013593505050565b60006020828403121561351157600080fd5b81516131e5816131b0565b634e487b7160e01b600052601160045260246000fd5b60008261354f57634e487b7160e01b600052601260045260246000fd5b500490565b60006020828403121561356657600080fd5b5051919050565b60006020828403121561357f57600080fd5b815160ff811681146131e557600080fd5b6001600160a01b03998a168152978916602089015295909716604087015260608601939093526001600160801b0391909116608085015260a08401526001600160401b031660c083015260ff90921660e08201529015156101008201526101200190565b600081600019048311821515161561360e5761360e61351c565b500290565b60006001600160401b0382111561362c5761362c6131ec565b5060051b60200190565b600082601f83011261364757600080fd5b8151602061365c61365783613613565b61322a565b82815260059290921b8401810191818101908684111561367b57600080fd5b8286015b8481101561369f578051613692816131b0565b835291830191830161367f565b509695505050505050565b600082601f8301126136bb57600080fd5b815160206136cb61365783613613565b82815260059290921b840181019181810190868411156136ea57600080fd5b8286015b8481101561369f57805183529183019183016136ee565b60006020828403121561371757600080fd5b81516001600160401b038082111561372e57600080fd5b9083019060c0828603121561374257600080fd5b61374a613202565b82518281111561375957600080fd5b61376587828601613636565b82525060208301518281111561377a57600080fd5b61378687828601613636565b60208301525060408301518281111561379e57600080fd5b6137aa87828601613636565b6040830152506060830151828111156137c257600080fd5b6137ce878286016136aa565b6060830152506080830151828111156137e657600080fd5b6137f2878286016136aa565b60808301525060a08301518281111561380a57600080fd5b613816878286016136aa565b60a08301525095945050505050565b634e487b7160e01b600052603260045260246000fd5b6001600160a01b0394851681529290931660208301526040820152606081019190915260800190565b60008060006060848603121561387957600080fd5b8351925060208401519150604084015190509250925092565b600082198211156138a5576138a561351c565b500190565b60006001600160401b03808316818114156138c7576138c761351c565b6001019392505050565b6000828210156138e3576138e361351c565b500390565b600181815b808511156139235781600019048211156139095761390961351c565b8085161561391657918102915b93841c93908002906138ed565b509250929050565b60008261393a57506001610796565b8161394757506000610796565b816001811461395d576002811461396757613983565b6001915050610796565b60ff8411156139785761397861351c565b50506001821b610796565b5060208310610133831016604e8410600b84101617156139a6575081810a610796565b6139b083836138e8565b80600019048211156139c4576139c461351c565b029392505050565b60006131e5838361392b565b6000806000606084860312156139ed57600080fd5b83516139f8816131b0565b602085015160409095015190969495509392505050565b600060208284031215613a2157600080fd5b81516131e58161327656fea26469706673582212207c08860c2651b06b3e9958dab5eb148552e7965e4fb9f603fdf2fbd0dc8fee9a64736f6c63430008090033",
  "linkReferences": {
    "contracts/libraries/OpynInteractions.sol": {
      "OpynInteractions": [
        {
          "length": 20,
          "start": 2596
        },
        {
          "length": 20,
          "start": 4320
        },
        {
          "length": 20,
          "start": 5067
        },
        {
          "length": 20,
          "start": 6146
        },
        {
          "length": 20,
          "start": 6353
        },
        {
          "length": 20,
          "start": 6833
        },
        {
          "length": 20,
          "start": 7763
        },
        {
          "length": 20,
          "start": 8583
        },
        {
          "length": 20,
          "start": 11156
        },
        {
          "length": 20,
          "start": 11660
        }
      ]
    }
  },
  "deployedLinkReferences": {
    "contracts/libraries/OpynInteractions.sol": {
      "OpynInteractions": [
        {
          "length": 20,
          "start": 1953
        },
        {
          "length": 20,
          "start": 3677
        },
        {
          "length": 20,
          "start": 4424
        },
        {
          "length": 20,
          "start": 5503
        },
        {
          "length": 20,
          "start": 5710
        },
        {
          "length": 20,
          "start": 6190
        },
        {
          "length": 20,
          "start": 7120
        },
        {
          "length": 20,
          "start": 7940
        },
        {
          "length": 20,
          "start": 10513
        },
        {
          "length": 20,
          "start": 11017
        }
      ]
    }
  }
}