{
  "_format": "hh-sol-artifact-1",
  "contractName": "Protocol",
  "sourceName": "contracts/Protocol.sol",
  "abi": [
    {
      "inputs": [
        {
          "internalType": "address",
          "name": "_optionRegistry",
          "type": "address"
        },
        {
          "internalType": "address",
          "name": "_priceFeed",
          "type": "address"
        },
        {
          "internalType": "address",
          "name": "_volatilityFeed",
          "type": "address"
        },
        {
          "internalType": "address",
          "name": "_portfolioValuesFeed",
          "type": "address"
        },
        {
          "internalType": "address",
          "name": "_authority",
          "type": "address"
        }
      ],
      "stateMutability": "nonpayable",
      "type": "constructor"
    },
    {
      "inputs": [],
      "name": "UNAUTHORIZED",
      "type": "error"
    },
    {
      "anonymous": false,
      "inputs": [
        {
          "indexed": false,
          "internalType": "contract IAuthority",
          "name": "authority",
          "type": "address"
        }
      ],
      "name": "AuthorityUpdated",
      "type": "event"
    },
    {
      "inputs": [],
      "name": "authority",
      "outputs": [
        {
          "internalType": "contract IAuthority",
          "name": "",
          "type": "address"
        }
      ],
      "stateMutability": "view",
      "type": "function"
    },
    {
      "inputs": [
        {
          "internalType": "address",
          "name": "_portfolioValuesFeed",
          "type": "address"
        }
      ],
      "name": "changePortfolioValuesFeed",
      "outputs": [],
      "stateMutability": "nonpayable",
      "type": "function"
    },
    {
      "inputs": [
        {
          "internalType": "address",
          "name": "_volFeed",
          "type": "address"
        }
      ],
      "name": "changeVolatilityFeed",
      "outputs": [],
      "stateMutability": "nonpayable",
      "type": "function"
    },
    {
      "inputs": [],
      "name": "optionRegistry",
      "outputs": [
        {
          "internalType": "address",
          "name": "",
          "type": "address"
        }
      ],
      "stateMutability": "view",
      "type": "function"
    },
    {
      "inputs": [],
      "name": "portfolioValuesFeed",
      "outputs": [
        {
          "internalType": "address",
          "name": "",
          "type": "address"
        }
      ],
      "stateMutability": "view",
      "type": "function"
    },
    {
      "inputs": [],
      "name": "priceFeed",
      "outputs": [
        {
          "internalType": "address",
          "name": "",
          "type": "address"
        }
      ],
      "stateMutability": "view",
      "type": "function"
    },
    {
      "inputs": [
        {
          "internalType": "contract IAuthority",
          "name": "_newAuthority",
          "type": "address"
        }
      ],
      "name": "setAuthority",
      "outputs": [],
      "stateMutability": "nonpayable",
      "type": "function"
    },
    {
      "inputs": [],
      "name": "volatilityFeed",
      "outputs": [
        {
          "internalType": "address",
          "name": "",
          "type": "address"
        }
      ],
      "stateMutability": "view",
      "type": "function"
    }
  ],
  "bytecode": "0x60c060405234801561001057600080fd5b506040516104b73803806104b783398101604081905261002f916100dc565b600080546001600160a01b0319166001600160a01b03831690811790915560405190815281907f2f658b440c35314f52658ea8a740e05b284cdc84dc9ae01e891f21b8933e7cad9060200160405180910390a150506001600160a01b0393841660805291831660a052600180549184166001600160a01b031992831617905560028054929093169116179055610141565b80516001600160a01b03811681146100d757600080fd5b919050565b600080600080600060a086880312156100f457600080fd5b6100fd866100c0565b945061010b602087016100c0565b9350610119604087016100c0565b9250610127606087016100c0565b9150610135608087016100c0565b90509295509295909350565b60805160a05161035261016560003960006101230152600060c101526103526000f3fe608060405234801561001057600080fd5b50600436106100885760003560e01c80635fb480c91161005b5780635fb480c91461010b578063741bef1a1461011e5780637a9e5e4b14610145578063bf7e214f1461015857600080fd5b8063128e414b1461008d5780633b4567b0146100bc578063405a2008146100e357806349180360146100f8575b600080fd5b6001546100a0906001600160a01b031681565b6040516001600160a01b03909116815260200160405180910390f35b6100a07f000000000000000000000000000000000000000000000000000000000000000081565b6100f66100f13660046102db565b61016b565b005b6100f66101063660046102db565b610195565b6002546100a0906001600160a01b031681565b6100a07f000000000000000000000000000000000000000000000000000000000000000081565b6100f66101533660046102db565b6101bf565b6000546100a0906001600160a01b031681565b61017361021b565b600280546001600160a01b0319166001600160a01b0392909216919091179055565b61019d61021b565b600180546001600160a01b0319166001600160a01b0392909216919091179055565b6101c761021b565b600080546001600160a01b0319166001600160a01b0383169081179091556040519081527f2f658b440c35314f52658ea8a740e05b284cdc84dc9ae01e891f21b8933e7cad9060200160405180910390a150565b60008054906101000a90046001600160a01b03166001600160a01b0316630c340a246040518163ffffffff1660e01b8152600401602060405180830381865afa15801561026c573d6000803e3d6000fd5b505050506040513d601f19601f8201168201806040525081019061029091906102ff565b6001600160a01b0316336001600160a01b0316146102c15760405163075fd2b160e01b815260040160405180910390fd5b565b6001600160a01b03811681146102d857600080fd5b50565b6000602082840312156102ed57600080fd5b81356102f8816102c3565b9392505050565b60006020828403121561031157600080fd5b81516102f8816102c356fea2646970667358221220bc5286b2c37dbb818966fe9db39210e3fb7594f480b173a74db75bf6a5c5dcdf64736f6c634300080c0033",
  "linkReferences": {},
  "deployedLinkReferences": {}
}